:020000040800F2
:10000000088D00202D030008D17C0008FD64000845
:10001000CD7C0008C30E0008C9A60008000000003F
:100020000000000000000000000000006D02000859
:10003000231D000800000000C902000851810008CB
:100040004703000847030008470300084703000868
:100050004703000847030008F91E0008470300088B
:1000600047030008031F00080D1F0008470300088E
:10007000611300084703000847030008470300080E
:100080004703000847030008470300084703000828
:10009000690F00084703000847030008171F0008FE
:1000A0004703000847030008470300084703000808
:1000B00047030008470300084703000847030008F8
:1000C00047030008470300084703000847030008E8
:1000D00047030008D5880008470300089D890008E9
:1000E00047030008470300084703000847030008C8
:1000F00047030008470300084703000847030008B8
:1001000047030008470300084703000847030008A7
:10011000470300084703000847030008458200081A
:10012000470300084703000871130008091C000872
:100130004703000847030008470300084703000877
:10014000191000084703000847030008D57C000881
:10015000191C000847030008291C00084703000871
:100160004703000847030008470300084703000847
:100170004703000847030008470300080000000089
:10018000470300084703000800F002F800F05EF89B
:100190000AA090E8000C82448344AAF10107DA45E2
:1001A00001D100F053F8AFF2090EBAE80F0013F0D6
:1001B000010F18BFFB1A43F001031847D475010063
:1001C000F47501000A444FF0000C10F8013B13F0E5
:1001D000070408BF10F8014B1D1108BF10F8015BA0
:1001E000641E05D010F8016B641E01F8016BF9D193
:1001F00013F0080F1EBF10F8014BAD1C0C1B09D1EA
:100200006D1E58BF01F801CBFAD505E014F8016B5B
:1002100001F8016B6D1EF9D59142D6D370470000ED
:100220000023002400250026103A28BF78C1FBD8FF
:10023000520728BF30C148BF0B6070471FB516F08A
:100240009CF800F063FA1FBD10B510BD00F09CFAD9
:100250001146FFF7F3FF13F0B1FD00F0BAFA03B453
:10026000FFF7F2FF03BC00F01FFB00002C4B1968E6
:100270000868B0E8F04F80F30988BFF36F8F4FF044
:10028000000080F3118870470000000008480068F3
:10029000006880F308884FF0000080F3148862B68D
:1002A00061B6BFF34F8FBFF36F8F00DF00BF00BF9A
:1002B00008ED00E0DFF80C00016841F47001016016
:1002C000704700BF88ED00E0EFF30980BFF36F8F48
:1002D000134B1A681EF0100F08BF20ED108A20E99A
:1002E000F04F106009B44FF0500080F31188BFF355
:1002F0004F8FBFF36F8F14F067FD4FF0000080F356
:10030000118809BC19680868B0E8F04F1EF0100F9A
:1003100008BFB0EC108A80F30988BFF36F8F704775
:100320001C040020EFF30580704700000948804757
:1003300009480047FEE7FEE7FEE7FEE7FEE7FEE7C7
:10034000FEE7FEE7FEE7FEE704480549054A064BDF
:1003500070470000358200088901000808870020E6
:10036000088D002008890020088900209FED1A1AB6
:10037000F5EE000A40EE010ABDEEE00AF5EEC00A15
:1003800010EE100AF1EE10FA38BF401E00EE100A0F
:100390001349F7EE001AB8EEC00A30EEC00ADFEDDE
:1003A0000F0A20EE200AFCEEC00A10EE900AC0F3FD
:1003B000080000EE900A01EB8000F8EE600A90ED74
:1003C000011A70EE600A90ED000A71EEE01A21EE5B
:1003D000800A00EE810A704783F9223E0000004443
:1003E000146F0108DFED190AB5EEC00A60EE200AAD
:1003F000BDEEE01A11EE100AF1EE10FA38BF401E01
:1004000000EE100A1349F7EE001AB8EEC00A30EEFB
:10041000C00ADFED0F0A60EE200ABCEEE00A10EE23
:10042000100AC0F3080000EE100A01EB8000B8EEDD
:10043000400A90ED011A70EEC00A90ED000A71EECC
:10044000E01A21EE800A00EE810A704783F9223E0D
:1004500000000044146F010853EA020C00F06980A8
:100460002DE9F04B4FF00006002B1FBFB3FA83F5C8
:1004700003FA05F424FA05F65E4012BF1643B2FAF9
:1004800082F502FA05F4C5F120051EBF22FA05FC2B
:1004900044EA0C04203556EA044C4FEA144418BFD1
:1004A000641C4FF000084FF00009904271EB030C00
:1004B00039D3002919BFB1FA81F701FA07F6B0FA6A
:1004C00080F700FA07F6C7F120071EBF20FA07FCE5
:1004D00046EA0C062037B6FBF4FCA7EB0507103FF5
:1004E00007F01F0BCBF120060CFA0BFB2CFA06F6DB
:1004F00044BFB3460026202FA4BF5E464FF0000B3A
:100500005BEA060C08BF4FF0010B19EB0B09ABFBC4
:10051000027C48EB0608C01B06FB02CC0BFB03CC9D
:1005200071EB0C01C1E70B46024641464846BDE867
:10053000F08B13B54FF000004FF00001AFF30080D7
:10054000BDE81C40704710B5431C02E010F8011BC9
:1005500071B18107FAD14FF0013202C88C1A8C4375
:1005600014EAC211F9D0C01A0A0603D0C01E10BD89
:10057000C01A10BD0A0401D0801E10BD0902FCD0B3
:10058000401E10BD032A40F2308010F0030C00F032
:10059000158011F8013BBCF1020F624498BF11F8BD
:1005A00001CB00F8013B38BF11F8013BA2F1040276
:1005B00098BF00F801CB38BF00F8013B11F00303EE
:1005C00000F02580083AC0F0088051F8043B083A52
:1005D00051F804CBA0E80810F5E7121D5CBF51F8F4
:1005E000043B40F8043BAFF30080D20724BF11F86E
:1005F000013B11F801CB48BF11F8012B24BF00F8D3
:10060000013B00F801CB48BF00F8012B704710B543
:10061000203AC0F00B80B1E81850203AA0E81850FA
:10062000B1E81850A0E81850BFF4F5AF5FEA027CBB
:1006300024BFB1E81850A0E8185044BF18C918C02A
:10064000BDE810405FEA827C24BF51F8043B40F8CB
:10065000043B08BF7047D20728BF31F8023B48BFB0
:1006600011F8012B28BF20F8023B48BF00F8012BEE
:1006700070474FF000020429C0F0128010F0030C04
:1006800000F01B80CCF1040CBCF1020F18BF00F885
:10069000012BA8BF20F8022BA1EB0C0100F00DB834
:1006A0005FEAC17C24BF00F8012B00F8012B48BF92
:1006B00000F8012B70474FF0000200B51346944636
:1006C0009646203922BFA0E80C50A0E80C50B1F1AA
:1006D0002001BFF4F7AF090728BFA0E80C5048BFBE
:1006E0000CC05DF804EB890028BF40F8042B08BF5C
:1006F000704748BF20F8022B11F0804F18BF00F858
:10070000012B7047704770477047000070B5064C6A
:100710007C44064D7D4403E0206820448047241D2E
:10072000AC42F9D170BD00009C700100AC700100BA
:1007300010B500F009F8006810BD10B5044600F0CF
:1007400003F8046010BD000000487047A886002030
:100750001FB584B000200A9C06AB04AA02A900942D
:10076000AFF3008018B1DDE9020108B010BD034805
:10077000204000F037F800200146F6E70000207C1A
:1007800000487047A88600207546FFF7F9FFAE467F
:1007900005006946534620F00700854618B020B58D
:1007A000FFF7D2FDBDE820404FF000064FF00007F4
:1007B0004FF000084FF0000B21F00701AC46ACE809
:1007C000C009ACE8C009ACE8C009ACE8C0098D4676
:1007D000704710B50446AFF300802046BDE81040D6
:1007E000FFF73DBD10B500F009F8BDE81040AFF3CC
:1007F0000080002801D000F057B8704710B50228DB
:1008000003D0410103D50DA112E0002010BD01016C
:1008100001D50FA10CE0C10001D511A108E08100B4
:1008200001D512A104E0400001D513A100E0002190
:1008300015A000F040F8012010BD0000496E76615F
:100840006C6964204F7065726174696F6E0000009E
:10085000446976696465204279205A65726F0000A8
:100860004F766572666C6F7700000000556E6465A8
:1008700072666C6F77000000496E65786163742062
:10088000526573756C7400005349474650453A20D1
:1008900041726974686D6574696320657863657019
:1008A00074696F6E3A20000001491820ABBEFEE764
:1008B00026000200704770B505460C460A2000E08D
:1008C0006D1C00F011F835B128780028F8D102E04D
:1008D000641C00F009F814B120780028F8D1BDE8B4
:1008E00070400A20AFF3008008B569468DF800001B
:1008F0000320ABBE08BD00004A494A6822F44032DA
:100900004A604A6843681A434A6001684A6822F4A8
:1009100080724A6001684A68036942EA03224A60B9
:1009200001684A6822F040724A6001684A68836838
:100930001A434A6001688A6822F400628A6001688A
:100940008A68C3681A438A60816A6FF07062D14214
:1009500014D001688A6822F070628A6001688A682F
:10096000836A1A438A6001688A6822F040528A606A
:1009700001688A68C36A1A438A6009E001688A6864
:1009800022F070628A6001688A6822F040528A60B0
:1009900001688A6822F002028A6001688A68037E20
:1009A00042EA43028A6090F8201089B101684A68DF
:1009B00042F400624A6001684A6822F460424A6078
:1009C00001684A68436A5B1E42EA43324A6004E0B7
:1009D00001684A6822F400624A600168CA6A22F427
:1009E0007002CA620168CA6A838B5B1E42EA0352C4
:1009F000CA6201688A6822F400728A6001688A68A3
:100A000090F8303042EA43228A6001688A6822F412
:100A100080628A6001688A68406942EA8020886052
:100A2000704700000023014010B52DED028BB0EEA1
:100A3000408AB0EE480A11F06BFEBDEC028B10BD8F
:100A400010B52DED028BB0EE408AF0EE608AF0EE2C
:100A5000680AB0EE480A11F0F1FEBDEC028B10BD41
:100A600010B52DED028BB0EE408AB0EE480AFFF7CC
:100A70007DFCBDEC028B10BDF0EE400AF5EEC00A25
:100A8000F1EE10FA02DDB0EE600A7047B1EE600AD6
:100A9000FBE7000018B19FED020A80ED000A7047E5
:100AA0000000000018B1B3EE060A80ED000A70479E
:100AB00070B52DED0C8B84B006460C4615469FEDA7
:100AC000990AF0EE408A9FED970AB0EE409A9FEDAA
:100AD000950AF0EE40BA9FED930AF0EE409A9FED32
:100AE000910AB0EE40AA0EB104B11DB904B0BDEC3C
:100AF0000C8B70BD8C48FFF7CDFF8C48FFF7D2FF01
:100B00008A48D0ED000A9FED8A1A60EE810AB0EEA5
:100B1000600A00F02DF9F0EE408A28EEA80AF0EE07
:100B2000408A8248D0ED000AB0EE001A60EE810AD9
:100B30009FED7F1A60EE810AB0EE600A00F018F9AE
:100B4000B0EE409A29EE090AB0EE409ADFED790A3C
:100B5000B7EE000A00EEA80ADFED770A00EEC90A38
:100B6000DFED760A20EE200A754880ED000A6E4817
:100B700090ED000ADFED730A80EE201AB7EE000A4E
:100B800031EE000A20EE000A6D48D0ED000A80EE3A
:100B9000801A6D4880ED001A94ED000AB5EEC00A87
:100BA000F1EE10FA0DD194ED010AB5EEC00AF1EEA6
:100BB00010FA06D194ED020AB5EEC00AF1EE10FA71
:100BC00046D09FED580AB0EE408A00200190029076
:100BD0000390D4ED000A60EEA00A94ED011AD4ED62
:100BE000011A41EE210A94ED021AD4ED021A41EEE7
:100BF000210AB0EE600A00F0A9F8B0EE408A94ED48
:100C0000000A20EE080A8DED010A94ED010A20EE9B
:100C1000080A8DED020A94ED020A20EE080A8DED15
:100C2000030ADDED010AF1EE600AB0EE600AFFF79B
:100C3000FBFEF0EE409A9DED031AF0EE410A9DEDA9
:100C4000021AB0EE410AFFF7FBFEB0EE40AA07E041
:100C50009FED340AF0EE409A9FED320AB0EE40AAC2
:100C600095ED000AB5EEC00AF1EE10FA0DD195ED42
:100C7000010AB5EEC00AF1EE10FA06D195ED020AAE
:100C8000B5EEC00AF1EE10FA3CD0B0EE690A00F001
:100C90006FF8B0EE408AB0EE690AFFF7E1FEB0EE01
:100CA00040DAB0EE4A0A00F063F8F0EE40AAB0EE87
:100CB0004A0AFFF7D5FEB0EE40BA28EE2A0AD5ED73
:100CC000010A20EE200AD5ED000A0DEE200A68EE9A
:100CD0000B0A95ED021A00EE810AB0EE40CA95EDBE
:100CE000010A20EE0B0AD5ED020A0AEEE00AF0EE48
:100CF00040CAF0EE6C0AB0EE4C0AFFF7A1FEF0EE2F
:100D000040BA03E09FED070AF0EE40BAB0EE4A1A8F
:100D1000F0EE690AB0EE6B0A304612F06BFA00BFD3
:100D2000E4E6000000000000980500209C0500207B
:100D300035FA8E3CC1BFAD3B9DF8C5362F7C1C41BA
:100D4000A0050020506CC24AA405002010B52DED6E
:100D5000028BB0EE408AB0EE480A11F097FEB7EE73
:100D6000001AC1EE000AB0EE600ABDEC028B10BDA5
:100D700010B52DED028BB0EE408AB0EE480AFFF7B9
:100D800031FBBDEC028B10BD2DE9F0412DED028B46
:100D90009AB00546B0EE408A0E46174698460020A7
:100DA0001790189019901490159016904DB146B167
:100DB0003FB1B8F1000F04D0B5EEC08AF1EE10FAE1
:100DC00005D100201AB0BDEC028BBDE8F08196ED94
:100DD000000A8DED170A96ED010A8DED180A96EDC1
:100DE000020A8DED190A97ED000A8DED140A97EDB0
:100DF000010A8DED150A97ED020A8DED160A17AA64
:100E000014A9284612F048F8402104A8FFF753FC23
:100E100000200090019002900390002417A904A8DC
:100E200013F000FD00BF30E004A800EB041090EDCB
:100E3000000AD5ED000A20EE200A04A800EB0410F9
:100E4000D0ED010A95ED011A00EE810A04A800EB2D
:100E50000410D0ED020A95ED021A00EE810A04A8F2
:100E600000EB0410D0ED030A95ED031A00EE810AA1
:100E700020EE080AF0EE000A80EE201A684600EB29
:100E8000840080ED001A601CC4B2042CCCDB00246A
:100E900010E005EB840090ED000A684600EB84004A
:100EA000D0ED000A30EE200A05EB840080ED000A48
:100EB000601CC4B2042CECDB284613F0D1FA0120EC
:100EC00080E700BFFEE70000F8B507460C46154670
:100ED0001E4640F2FF100D49086000208860C8607F
:100EE00008200861380A0A4908704F70200A887083
:100EF000CC70280A08714D71300A8871CE716B462A
:100F00000A460249034801F093FBF8BD1433002060
:100F1000860200208C080020F8B507460C461546CE
:100F20001E464FF400700D49086000208860C860BC
:100F300008200861380A0A4908704F70200A887032
:100F4000CC70280A08714D71300A8871CE716B46D9
:100F50000A460249034801F06BFBF8BDFC32002051
:100F60007E0200208C08002010B5024801F02DFD03
:100F700010BD00008C080020F8B507460C46154649
:100F80001E4640F2FF100D49086000208860C860CE
:100F900008200861380A0A4908704F70200A8870D2
:100FA000CC70280A08714D71300A8871CE716B4679
:100FB0000A460249034801F03BFBF8BD44330020D8
:100FC00096020020B4080020F8B507460C461546E6
:100FD0001E464FF400700D49086000208860C8600C
:100FE00008200861380A0A4908704F70200A887082
:100FF000CC70280A08714D71300A8871CE716B4629
:101000000A460249034801F013FBF8BD2C330020C7
:101010008E020020B408002010B5024801F0D5FC73
:1010200010BD0000B408002008B54FF4E0600C4982
:10103000086000208860C860082008610020094915
:10104000087048708870C870087148718871C871DC
:101050006B460A460249044801F0EAFA08BD00005E
:101060005C3300209E0200208C08002004284FF0F2
:10107000000070470020704710B500220449054861
:1010800007F051FE0449034807F043FE002010BD5D
:10109000A01B00206C0E0020A013002070B5054698
:1010A0000C46294609482268FFF76CFA084A21686D
:1010B0001160064809F00AFB2946064807F029FE98
:1010C000044807F005FE002070BD00003C1300201E
:1010D0009C0000206C0E00200020704710B50A46CE
:1010E0000849D1F8BC12D1F81412002901D001200E
:1010F00010BD0146034807F016FEBDE81040014848
:1011000007F09ABE6C0E002010B5A5201E4908708D
:101110002420A1F801000020C8701C480A68026061
:1011200009790171052112F033F940F201301649B5
:10113000A1F805004FF48170A1F80700144890F859
:101140004A101148A0F809101148B0F8BA100E481A
:10115000A0F80B100F49086B09F092FB0A48B0F891
:101160000100821C0849491D0848401DFFF70AFA82
:101170002D21064812F0F4F8C8232D220349064811
:1011800005F057F910BD0000383000207C2D0020FC
:10119000BE2C0020DC4600207C0C002010B5A520D1
:1011A0001D4908706F20A1F801000020C8701B487D
:1011B0000A68026009790171052112F0E9F840F22C
:1011C00001301549A1F805004FF48270A1F807001D
:1011D000134890F84A101048A0F809101048B0F8C9
:1011E000BA100D48A0F80B100DF02AF90A48B0F813
:1011F0000100821C0849491D0848401DFFF7C2F93B
:101200007821064812F0ACF8C82378220349054833
:1012100005F00FF910BD0000482F00207C2D0020A4
:10122000BE2C00207C0C002010B521480078072837
:1012300002DB00201E490870A5201E4908703320DB
:10124000A1F801000020C8701B480A6802600979F3
:101250000171052112F09CF840F201301549A1F806
:1012600005004FF48870A1F80700144890F84A1060
:101270001048A0F809101148B0F8BA100D48A0F8AD
:101280000B100EF0A5FC0B48B0F80100821C0949B8
:10129000491D0948401DFFF775F93C21064812F029
:1012A0005FF8C8233C220449054805F0C2F810BD88
:1012B000180200200C2F00207C2D0020BE2C0020C6
:1012C0007C0C002010B5A5201F4908701520A1F83E
:1012D00001000020C8701D480A6802600979017188
:1012E000052112F055F840F201301749A1F8050028
:1012F00040F20110A1F80700154890F84A10124872
:10130000A0F809101248B0F8BA100F48A0F80B1056
:1013100010480068104991ED000A0EF02DF80A48B7
:10132000B0F80100821C0849491D0848401DFFF71C
:1013300029F91E21054812F013F8C8231E2203497B
:10134000064805F076F810BDED2F00207C2D00201A
:10135000BE2C0020280200202C0200207C0C002043
:1013600010B5024801F054FE10BD0000C40D00206D
:1013700010B5FE48C06C0068FD49884276D9FC482B
:1013800054380068F949C96C0968FA4A914201D198
:10139000202169E0F549C96C0968F54A483A91424B
:1013A00001D1202160E0F149C96C0968F14A60323D
:1013B000914201D1202157E0EC49C96C0968EC4AFF
:1013C0001832914201D120214EE0E849C96C0968E8
:1013D000E84A1832914201D1C91445E0E349C96C89
:1013E0000968E34A303A914201D1C9143CE0DF492F
:1013F000C96C0968DF4A7832914201D1C91433E0DF
:10140000DA49C96C0968DA4A3032914201D1C9140B
:101410002AE0D649C96C0968D64A3032914202D1D5
:101420004FF4001120E0D149C96C0968D04A183A3C
:10143000914202D14FF4001116E0CC49C96C096801
:10144000CC4A9032914202D14FF400110CE0C749CE
:10145000C96C0968C64A4832914203D14FF4001161
:1014600002E003E04FF00061084070E1BF48C06C4B
:101470000068C049A831884276D9BD48583800680C
:10148000BA49C96C0968BB4A914201D1202169E07F
:10149000B649C96C0968B64A483A914201D120213F
:1014A00060E0B249C96C0968B24A6032914201D128
:1014B000202157E0AD49C96C0968AD4A1832914204
:1014C00001D120214EE0A949C96C0968A94A183206
:1014D000914201D1C91445E0A449C96C0968A44AE4
:1014E000303A914201D1C9143CE0A049C96C096865
:1014F000A04A7832914201D1C91433E09B49C96CAA
:1015000009689B4A3032914201D1C9142AE09749B7
:10151000C96C0968974A3032914202D14FF40011E8
:1015200020E09249C96C0968914A183A914202D167
:101530004FF4001116E08D49C96C09688D4A90324C
:10154000914202D14FF400110CE08849C96C09683E
:10155000874A4832914203D14FF4001102E003E080
:101560004FF000610840F2E08048C06C006881499B
:101570004831884276D97F48103840687B49C96C29
:1015800009687C4A914201D1202169E07749C96C00
:101590000968774A483A914201D1202160E07349B5
:1015A000C96C0968734A6032914201D1202157E029
:1015B0006E49C96C09686E4A1832914201D12021E6
:1015C0004EE06A49C96C09686A4A1832914201D1F1
:1015D000C91445E06549C96C0968654A303A9142C9
:1015E00001D1C9143CE06149C96C0968614A78328B
:1015F000914201D1C91433E05C49C96C09685C4A65
:101600003032914201D1C9142AE05849C96C0968A5
:10161000584A3032914202D14FF4001120E0534930
:10162000C96C0968524A183A914202D14FF400112C
:1016300016E04E49C96C09684E4A9032914202D177
:101640004FF400110CE04949C96C0968484A483216
:10165000914203D14FF4001102E003E04FF000612A
:10166000084074E04348103800684049C96C096874
:10167000404A914201D1202168E03C49C96C096887
:101680003B4A483A914201D120215FE03749C96C79
:101690000968384A6032914201D1202156E033492D
:1016A000C96C0968324A1832914201D120214DE0BB
:1016B0002E49C96C09682F4A1832914201D1C914C8
:1016C00044E02A49C96C0968294A303A914201D15B
:1016D000C9143BE02549C96C0968264A7832914211
:1016E00001D1C91432E02149C96C0968204A30325D
:1016F000914201D1C91429E01C49C96C09681D4AED
:101700003032914202D14FF400111FE01749C96CE9
:101710000968174A183A914202D14FF4001115E0B6
:101720001249C96C0968134A9032914202D14FF4B0
:1017300000110BE00D49C96C09680D4A483291420D
:1017400002D14FF4001101E04FF000610840002881
:101750006FD00648C06C0068054988427BD90348B1
:10176000C06C00680349884208D105E0A409002044
:101770005864024010600240202068E0FE48C06CBF
:101780000068FE49884201D1202060E0FA48C06C20
:101790000068FB49884201D1202058E0F648C06C1F
:1017A0000068F6496031884201D120204FE0F248BC
:1017B000C06C0068F2494839884201D1C01446E043
:1017C000ED48C06C0068ED491831884201D1C01461
:1017D0003DE0E948C06C0068E9491831884201D110
:1017E000C01434E0E448C06C0068E44978318842B1
:1017F00001D1C0142BE0E048C06C0068E0493039EA
:10180000884202D14FF4001021E0DB48C06C006830
:10181000DA493031884202D14FF4001017E0D6483F
:10182000C06C0068D6493031884204D14FF40010B2
:101830000DE0DFE10FE0D048C06C0068CF49903187
:10184000884202D14FF4001001E04FF00060CB4914
:10185000091F08606AE1C848C06C0068C84948317F
:10186000884274D9C448C06C0068C5496039884250
:1018700001D1202066E0C048C06C0068BF498842A2
:1018800001D120205EE0BC48C06C0068BC498842A1
:1018900001D1202056E0B848C06C0068B7496031DB
:1018A000884201D120204DE0B348C06C0068B449A3
:1018B0004839884201D1C01444E0AF48C06C006888
:1018C000AE491831884201D1C0143BE0AA48C06C2F
:1018D0000068AB491831884201D1C01432E0A648F3
:1018E000C06C0068A5497831884201D1C01429E054
:1018F000A148C06C0068A2493039884202D14FF437
:1019000000101FE09C48C06C00689C493031884240
:1019100002D14FF4001015E09748C06C0068984958
:101920003031884202D14FF400100BE09248C06C75
:10193000006892499031884202D14FF4001001E0D2
:101940004FF000608D4908390860EFE0FFE78A48F2
:10195000C06C00688A491839884274D98648C06CBE
:10196000006887496039884201D1202066E08248BA
:10197000C06C00688149884201D120205EE07E4829
:10198000C06C00687E49884201D1202056E07A4828
:10199000C06C006879496031884201D120204DE057
:1019A0007548C06C006876494839884201D1C01436
:1019B00044E07148C06C006870491831884201D118
:1019C000C0143BE06C48C06C00686D491831884217
:1019D00001D1C01432E06848C06C006867497831B2
:1019E000884201D1C01429E06348C06C0068644992
:1019F0003039884202D14FF400101FE05E48C06CBD
:101A000000685E493031884202D14FF4001015E081
:101A10005948C06C00685A493031884202D14FF4AD
:101A200000100BE05448C06C006854499031884263
:101A300002D14FF4001001E04FF0006050497039BE
:101A4000C86073E0FFE74C48C06C00684C496039DF
:101A5000884201D1202066E04748C06C00684749B1
:101A6000884201D120205EE04348C06C00684449B0
:101A7000884201D1202056E03F48C06C00683F49B1
:101A80006031884201D120204DE03B48C06C0068A5
:101A90003B494839884201D1C01444E03648C06C03
:101AA000006836491831884201D1C0143BE0324801
:101AB000C06C006832491831884201D1C01432E04C
:101AC0002D48C06C00682D497831884201D1C0147E
:101AD00029E02948C06C006829493039884202D180
:101AE0004FF400101FE02448C06C006823493031D7
:101AF000884202D14FF4001015E01F48C06C006806
:101B00001F493031884202D14FF400100BE01A48CF
:101B1000C06C006819499031884202D14FF400101E
:101B200001E04FF000601649703988601548007870
:101B300000F0020078B11348007820F0020011494B
:101B400008700846007840F0040008700122114631
:101B50000D4801F047FE0D48007800F00200E0B1AA
:101B60000A48007820F0020008490870084600780A
:101B700040F0040008700BE0A4090020106402404B
:101B800070600240E902002000040240EA020020E6
:101B900001221021184801F025FE1848007800F0B5
:101BA000020078B11548007820F00200134908704F
:101BB0000846007840F004000870012210210E4809
:101BC00001F010FE0CF072FB0D48007800F00400EC
:101BD00080B10B48007820F00400094908700846DD
:101BE000007840F0080008700648006840F00100E6
:101BF0000449086010BD000000000240EB02002014
:101C0000E9020020103C014010B5024801F000FA42
:101C100010BD0000B40A002010B5024801F0F8F928
:101C200010BD0000040D002010B5024801F0F0F9CD
:101C300010BD0000640D002001680A4BCAB2103AC2
:101C4000A3FB02321209084B9B5CC365032A04D92B
:101C50006FF30901091D816502E06FF309018165D8
:101C6000806D7047ABAAAAAAE86E01080146002061
:101C70008A6A8B69002B0FD0B3F5005F1DD08AB341
:101C8000012A30D0022A2ED0032A04D1C96A11F0C9
:101C9000807F00D0012070471AB1012A07D0022AA4
:101CA000F9D1C96A11F0807FF5D001207047C96A67
:101CB000B1F1C07FFAD1012070475AB1012A0BD08F
:101CC000022A07D0032AF7D1C96AB1F1C07FF3D144
:101CD0000120704701207047C96A11F0807FFAD057
:101CE00001207047FFE70120704710B4D0F800C012
:101CF000DCF8004024F48024CCF80040D0F800C088
:101D0000CCF804308368402B05D0036899600068E4
:101D1000C26010BC704703689A600068C16010BC64
:101D200070477047734890F84A000A2871DA01201A
:101D30007049A1F8A00002216E48A0F8A21003216A
:101D4000A0F8A4100421A0F8A6100521A0F8A8105E
:101D50000621A0F8AA100721A0F8AC1040F201114A
:101D6000A0F8AE10491CA0F8B010491CA0F8B210A1
:101D7000491CA0F8B410491CA0F8B610491CA0F8E2
:101D8000B81090F84A00012806D15A48B0F8AE00C1
:101D90005849A1F8BA00ACE0564890F84A00022829
:101DA00006D15448B0F8B0005249A1F8BA00A0E0FA
:101DB000504890F84A00032806D14E48B0F8B200C7
:101DC0004C49A1F8BA0094E04A4890F84A00042827
:101DD00006D14848B0F8B4004649A1F8BA0088E0F6
:101DE000444890F84A00052806D14248B0F8B600A9
:101DF0004049A1F8BA007CE03E4890F84A00062825
:101E000077D13C48B0F8B8003A49A1F8BA0070E080
:101E1000FFE765203749A1F8A00066213548A0F802
:101E2000A2106721A0F8A4106821A0F8A6106921CB
:101E3000A0F8A8106A21A0F8AA106B21A0F8AC1095
:101E400040F26511A0F8AE10491CA0F8B010491C72
:101E5000A0F8B210491CA0F8B410491CA0F8B610A4
:101E6000491CA0F8B81090F84A00652806D121480E
:101E7000B0F8AE001F49A1F8BA003AE01D4890F84A
:101E80004A00662806D11B48B0F8B0001949A1F8ED
:101E9000BA002EE0174890F84A00672806D1154886
:101EA000B0F8B2001349A1F8BA0022E0114890F846
:101EB0004A00682806D10F48B0F8B4000D49A1F8CF
:101EC000BA0016E00B4890F84A00692806D1094884
:101ED000B0F8B6000749A1F8BA000AE0054890F842
:101EE0004A006A2805D10348B0F8B8000149A1F8B2
:101EF000BA007047BE2C002010B5012001F04EFB47
:101F000010BD10B5082001F049FB10BD10B5102020
:101F100001F044FB10BD10B5202001F03FFB10BDC7
:101F200072B600BFFEE700000022002905D001299B
:101F30001AD002291BD04FF440720E490B6823F4CB
:101F400040730B600B681A430A600A6822F0F802BB
:101F50000A600A68022343EAC00010430860086868
:101F600040F48030086070474FF48072E5E74FF42A
:101F70000072E2E7103C02401448016811F4007F4F
:101F80000FD0016821F400710160016841F4006123
:101F90000160016821F400610160016841F4007191
:101FA0000160016811F4806F0FD0016821F4806135
:101FB0000160016841F480510160016821F48051A1
:101FC0000160016841F4806101607047003C02409B
:101FD00008490A6822F440720A600A6842F0040262
:101FE0000A600A684FF4803343EA00201043086017
:101FF00070470000103C0240064A136823F4407307
:10200000136013681360136843F0010313600170D9
:1020100070470000103C02400B49D1F800C02CF47E
:10202000407CC1F800C0D1F800C04CF4407CC1F83D
:1020300000C0D1F800C04CF0010CC1F800C0026033
:10204000BFF36F8F43607047103C0240074A13682C
:1020500023F440731360136843F4807313601368B0
:1020600043F001031360018070470000103C024000
:10207000074A136823F440731360136843F4007332
:102080001360136843F001031360016070470000A0
:10209000103C02401A49086810F0100F194805D08A
:1020A000C26942F01002C26110220A600A6812F08E
:1020B000200F05D0C26942F00802C26120220A60E6
:1020C0000A6812F0400F05D0C26942F00402C261F2
:1020D00040220A600A6812F0800F05D0C26942F0FF
:1020E0000202C26180220A600A6812F0020F05D063
:1020F000C26942F02002C2610220086070470000FD
:102100000C3C02409849002070B504461449002058
:10211000C86101F06FFB0646124D286810F4803F3D
:102120000ED0B4F1FF3F07D024B101F063FB801B58
:10213000A04201D9032070BD286810F4803FF0D17F
:10214000286810F0010F01D001202860286810F0E5
:10215000F20F03D0FFF79EFF012070BD002070BD7D
:10216000984900200C3C024070B50B480168001DE6
:102170000568001D0068084400280CD0074C0822A0
:10218000A11C04F029FE04F112012846BDE87040AC
:10219000042204F021BE70BD107AFF1F6C000020E5
:1021A00038B44FF0000CCDF800C090F83C20012A64
:1021B0001BD0012280F83C200A680724092A17D97D
:1021C0000368DD680A3A02EB420204FA02F225EAE9
:1021D0000202DA600A788B680A3A02EB4202934004
:1021E0000268D4682343D36014E038BC02207047EF
:1021F00003681D6902EB420204FA02F225EA0202B8
:102200001A610A788B6802EB4202934002681469F3
:10221000234313614A681F24072A15D203685D6BA4
:10222000521E02EB820204FA02F225EA02025A630B
:102230000A8893B20A79521E02EB82029340026826
:10224000546B234353632CE00D2A15D203681D6B96
:10225000D21F02EB820204FA02F225EA02021A639A
:102260000A8893B20A79D21F02EB82029340026875
:10227000146B2343136314E00368DD6A0D3A02EB29
:10228000820204FA02F225EA0202DA620A8893B2B2
:102290000A790D3A02EB820293400268D46A234322
:1022A000D362184A184B04689C4206D10C68122C61
:1022B00003D1546844F48004546004689C421CD1E7
:1022C0000B68102B01D0112B17D1536843F4000376
:1022D00053600968102910D10C490D4A0968B1FBF7
:1022E000F2F101EB810149000091009929B10099B7
:1022F000491E009100990029F9D180F83CC038BCF2
:1023000000207047002301400020014018040020F5
:1023100040420F000068C06C704770B5044600254D
:10232000002C03D0206C002610B107E0012070BD06
:10233000204600F01DF8666484F83C60206C10F0C4
:10234000100F04D0012584F83C60284670BD206C35
:1023500020F4885040F0020020642046FEF7CCFABA
:102360006664206C20F0020040F001002064EAE77F
:1023700010B586B00446142101A8FEF79CF9234944
:10238000206888420FD100BF0020009020480068DC
:1023900040F480701E4908600846006800F48070B0
:1023A000009000BF2FE01B49206888422BD100BF5E
:1023B000002000901648006840F4806014490860CE
:1023C0000846006800F48060009000BF00BF00BFB6
:1023D000002000900E481438006840F020000C499E
:1023E000143908600846006800F02000009000BF23
:1023F00000BF08150190032002900020039001A95E
:10240000054801F0D7F806B010BD000000200140DB
:102410004438024000220140001402402DE9F041FE
:1024200004460D46206881684FF0000711F4806F64
:102430000CD0806810F4807F08D0206C40F0200021
:10244000206484F83C700120BDE8F08101F0D2F9ED
:1024500006462068006810F0020F12D1B5F1FF3F68
:102460000AD025B101F0C6F9801BA84204D9206822
:10247000006810F0020F12D02068006810F0020F00
:10248000ECD021686FF012000860206C40F40070FE
:1024900020642068816811F0405F09D01EE0206C44
:1024A00040F00400206484F83C700320BDE8F08113
:1024B000217E99B9C16A11F4700F03D0806810F4BD
:1024C000806F0BD1206C20F480702064206C10F49D
:1024D000805F03D1206C40F0010020640020BDE843
:1024E000F081000081B00022009290F83C10012998
:1024F00008D0012180F83C1001688B6813F0010FAF
:1025000003D016E0022001B070478B6843F001034E
:102510008B603949394B0968B1FBF3F101EB41019B
:102520000091009929B10099491E00910099002954
:10253000F9D101688B6813F0010F52D0036C23F0BE
:10254000010323F4C06343F4807303644B6813F402
:10255000806F05D0036C23F4005343F4805303646D
:10256000036C13F4805F04D0436C23F006034364D0
:1025700000E0426480F83C20214A6FF022030B60A7
:10258000516811F01F0F1F4907D00068884230D1F1
:10259000816811F0405F1FD02BE00068884212D0A4
:1025A000194A904204D1D1F8042312F01F0F0AD027
:1025B000A0F18042B2F591321BD1D1F8041301F0A1
:1025C0001F01102915D2816811F0405F11D1816877
:1025D00041F0804181600CE0816841F08041816080
:1025E00007E0016C41F010010164416C41F0010110
:1025F0004164002001B070471804002040420F00E1
:1026000000230140002001400021014090F82020DB
:10261000012A07D0022A05D0416A41F48021416293
:1026200001207047006842691143416100207047F2
:1026300070B490F82040D0F800C0DCF808C0012C3D
:1026400008D0022C06D0416A41F48021416270BC5E
:10265000012070470CF080640CF000652C4302D11F
:102660001CF0805F5FD0CCF3016CBCF1020F06D987
:10267000416A41F40001416270BC012070470124AD
:1026800004FA0CF41C608B684FF4C0749BB1CD68E5
:1026900004EB0C162B434D6843EAC5030568AB51A8
:1026A0004FF4C273066803EB0C130D69F550097DF6
:1026B000012909D00DE00D88CB6804EB0C1643EA24
:1026C00045530568AB51EBE70168CD5845F480757B
:1026D000CD501179D379557941EA036193791B047F
:1026E00043EA052319434FF4C675036805EB0C153F
:1026F00059511178D37841EA0361937852781B04D9
:1027000043EA022211434FF4C473026803EB0C1333
:10271000D150016804EB0C100A5842F001020A5033
:1027200070BC00207047416A41F40011416270BCE6
:102730000120704790F82020012A07D0022A05D0F6
:10274000416A41F480214162012070474248D0F83B
:10275000002242F00102C0F80022D0F8002222F448
:102760007C52C0F80022D0F800224B6A42EA0322D1
:10277000C0F800220A7D012302F01F0203FA02F2D0
:10278000D0F81C329343C0F81C32CB69D3B9D0F8CF
:102790000C329343C0F80C32B1F80CC04B686CF3A8
:1027A0001F43D1F814C000EBCC0CCCF84032B1F888
:1027B00008C00B686CF31F43D1F814C000EBCC0CBD
:1027C000CCF84432CB69012B1AD1D0F80C32134328
:1027D000C0F80C32B1F800C04B686CF31F43D1F85D
:1027E00014C000EBCC0CCCF84032B1F808C0CB6878
:1027F0006CF31F43D1F814C000EBCC0CCCF844327E
:102800008B697BB1D0F804321343C0F804320B69F2
:1028100073B1D0F814321343C0F81432096A012995
:102820000CD010E0D0F804329343C0F80432EEE745
:10283000D0F814329343C0F81432EFE7D0F81C12EA
:102840001143C0F81C12D0F8001221F00101C0F8A9
:10285000001200207047000000640040704710B470
:1028600090F820C0BCF1010F09D0BCF1020F06D0D6
:10287000416A41F48021416210BC0120704739B1A6
:10288000D0F800C0DCF810C01CF0030F7DD006E0CB
:10289000D0F800C0DCF80CC01CF0030F7BD04FF464
:1028A000D87C04680CEB011C54F80C4004F00404C0
:1028B0009460002C7DD0046854F80C40E408546007
:1028C000046854F80CC00CF0020CC2F80CC04FF4B1
:1028D000DA7C04680CEB011C54F80C4004F00F0483
:1028E0001461046854F80C40C4F30724946104682C
:1028F00054F80CC04FEA1C4CC2F814C04FF4DC7200
:10290000D0F800C002EB01125CF802C083F800C0EE
:10291000D0F800C05CF802C04FEA1C2C83F801C05C
:10292000D0F800C05CF802C04FEA1C4C83F802C02B
:10293000D0F800C05CF80220120EDA704FF4DE729C
:10294000D0F800C002EB01125CF802C083F804C0AA
:10295000D0F800C05CF802C04FEA1C2C83F805C018
:10296000D0F800C05CF802C04FEA1C4C83F806C0E7
:10297000D0F800C05CF80220120EDA71F9B10068DC
:10298000016941F02001016102E00BE003E010E089
:1029900010BC00207047416A41F40011416210BC34
:1029A00001207047416A41F40011416210BC0120CE
:1029B0007047046854F80C40640D146080E70068A8
:1029C000C16841F02001C160DEE72DE9F05F0546F6
:1029D000002428684669D0F804908768D0F80CA0D5
:1029E000D0F810B0D0F8188016F0010F54D017F0BE
:1029F000010F17D00121816017F0020F03D0284684
:102A000000F000FB0EE017F0040F02D04FF400645A
:102A100008E017F0080F02D04FF4805402E0284677
:102A200000F0EFFA17F4807F19D029684FF4807016
:102A3000886017F4007F03D0284600F0E5FA0EE026
:102A400017F4806F02D044F4005408E017F4006FCC
:102A500002D044F4804402E0284600F0D4FA17F48F
:102A6000803F19D029684FF48030886017F4003F08
:102A700003D0284600F0CAFA0EE017F4802F02D0E7
:102A800044F4004408E017F4002F02D044F48034EA
:102A900002E0284600F0B9FA16F0080F07D01AF045
:102AA000100F04D044F4007429681020C86016F098
:102AB000040F4FF0080707D01AF0080F04D0286859
:102AC000C760284600F000FA16F0020F07D0286809
:102AD000C06810F0030F02D0284600F0F7F916F096
:102AE000400F07D01BF0100F04D044F48064296815
:102AF0001020086116F0200F07D01BF0080F04D03B
:102B000028680761284600F047FA16F0100F07D032
:102B10002868006910F0030F02D0284600F03DFA43
:102B200016F4003F08D019F0100F05D029681020C6
:102B30004860284600F032FA16F4803F07D019F0BA
:102B4000080F04D028684760284600F060FA16F4A1
:102B5000004F4AD019F0040F44D016F4807F04D0FF
:102B600018F0010F01D044F0010416F4007F04D0E6
:102B700018F0020F01D044F0020416F4806F04D064
:102B800018F0040F01D044F0040416F4006F29D0AB
:102B900018F0700F26D008F07000402815D006DC21
:102BA000102809D020280AD0302816D10AE0502851
:102BB0000ED0602811D10EE044F008040DE044F07E
:102BC00010040AE044F0200407E044F0400404E06C
:102BD00044F0800401E044F480742868816921F0A5
:102BE00070018161296804204860002C05D0686A62
:102BF000204368622846FFF731FEBDE8F09F70B5BC
:102C00000446002C03D094F8200010B104E0012009
:102C100070BD204600F0A8F82068016841F001016D
:102C2000016000F0E7FD0546206840684FF00506AA
:102C300010F0010F11D100F0DDFD401B0A2807D96B
:102C4000606A40F40030606284F82060012070BD4A
:102C50002068406810F0010FEDD02068016821F075
:102C60000201016000F0C6FD05462068406810F0D2
:102C7000020F11D000F0BEFD401B0A2807D9606A80
:102C800040F40030606284F82060012070BD20684C
:102C9000406810F0020FEDD1207E01283FD020685F
:102CA000016821F080010160607E01283DD020682C
:102CB000016821F040010160A07E01283BD020681E
:102CC000016821F020010160E07E012839D02068F0
:102CD000016841F010010160207F012837D0206891
:102CE000016821F008010160607F012835D020686B
:102CF000016821F004010160E168A068626908438D
:102D00002169114308436168491E08432168C8616D
:102D100000206062012084F82000002070BD20683F
:102D2000016841F080010160BEE72068016841F060
:102D300040010160C0E72068016841F020010160A6
:102D4000C2E72068016821F010010160C4E7206833
:102D5000016841F008010160C6E72068016841F0A0
:102D600004010160C8E7000010B586B004461421D4
:102D700001A8FDF7A0FC4E492068884241D14D488A
:102D80000068401C4B4908600846006801280FD1C4
:102D900000BF002000904848006840F0007046499D
:102DA00008600846006800F00070009000BF00BF97
:102DB00000BF0020009040481038006840F0080034
:102DC0003D49103908600846006800F0080000908E
:102DD00000BF00BF0320019002200290002003905A
:102DE000032004900920059001A9344800F0E2FB7B
:102DF00000220621142001F02FF9142001F01EF901
:102E000054E02F492068884250D100BF0020009034
:102E10002948006840F0806027490860084600683B
:102E200000F08060009000BF00BF22480068401C96
:102E3000204908600846006801280FD100BF002023
:102E400000901D48006840F000701B49086008466B
:102E5000006800F00070009000BF00BF00BF0020BD
:102E6000009015481038006840F0020012491039EF
:102E700008600846006800F00200009000BF00BF34
:102E80006020019002200290002003900320049013
:102E90000920059001A90B4800F08CFB00220521B8
:102EA000402001F0D9F8402001F0C8F806B010BD6C
:102EB000006400403400002040380240000C024012
:102EC00000680040000402407047000010B58CB05C
:102ED0000446012010F0C8FB2D49206888422AD101
:102EE00003AB05AA00212046FFF7B9FC0598A0F224
:102EF000012006281DD2DFE800F0120D03081C1780
:102F000003A9022010F02EFE14E003A9032010F004
:102F100029FE0FE003A9012010F024FE0AE003A916
:102F2000002010F01FFE05E003A9042010F01AFE97
:102F300000E000BF00BF17492068884225D101ABDF
:102F400005AA00212046FFF78AFC0598A0F201207F
:102F500030B1012809D002280CD0052814D10EE088
:102F600001A9052010F0FEFD0EE001A9062010F0D9
:102F7000F9FD09E001A9072010F0F4FD04E001A922
:102F8000082010F0EFFD00BF00BF0CB010BD000026
:102F9000006400400068004070477047704770B59B
:102FA000044694F82000012805D0606A40F400200F
:102FB0006062012070BD022084F820002068016852
:102FC00021F00101016000F015FC05462068406811
:102FD00010F0010F12D000F00DFC401B0A2808D998
:102FE000606A40F400306062052084F8200001200F
:102FF00070BD2068406810F0010FECD100206062C5
:1030000070BD704770477047704770477047704792
:103010002DE9F84304464FF00008CDF800807648CB
:103020004FF416510068B0FBF1F7A56D2E6894F8C7
:103030005C00082101FA00F0304211D020680268DB
:1030400012F0040F0CD0026822F00402026094F81F
:103050005C0001FA00F0A860606D40F0010060655E
:1030600094F85C004FF0010909FA00F0304209D0F1
:103070002168496911F0800F04D0A860606D40F0AC
:103080000200606594F85C1004208840304209D04A
:103090002168096811F0020F04D0A860606D40F04B
:1030A0000400606594F85C1010208840304224D001
:1030B0002168096811F0080F1FD0A8602068016816
:1030C00011F4802F0DD0006810F4002F04D0A16CF3
:1030D00099B12046884710E0216C71B1204688479D
:1030E0000BE0016811F4807F03D1016821F0080131
:1030F0000160216C09B12046884794F85C102020BB
:103100008840304251D02168096811F0100F4CD02E
:10311000A86094F8350005280DD02068016811F4E6
:10312000802F32D0006810F4002F29D0E16B59B302
:103130002046884739E02068016821F016010160C7
:103140002068416921F080014161206C08B9A06CC0
:1031500020B12068016821F00801016094F85C004A
:103160003F2101FA00F0A86084F8359084F834809B
:10317000216D00293ED001B02046BDE8F04308474C
:10318000616C09B1204688470FE0016811F4807F27
:1031900007D1016821F01001016084F8359084F8AE
:1031A0003480E16B09B120468847606D002821D04A
:1031B000606D10F0010F15D0052084F835002068EF
:1031C000016821F0010101600098401C0090B842A4
:1031D00004D82068006810F0010FF5D184F835900C
:1031E00084F83480E16C002904D001B02046BDE8A9
:1031F000F0430847BDE8F883180400202DE9F041AA
:10320000044600F0F7FA0546DCB1022084F83500E8
:10321000002684F834602068016821F00101016013
:103220002068006810F0010F13D000F0E3FA401B93
:10323000052809D920206065032084F83500BDE801
:10324000F0810120BDE8F0812068006810F0010FD6
:10325000EBD121680868234A1040A3686268D4F85B
:1032600010C01A43E36843EA0C031A4363691A4324
:10327000A3691A43E3691A43236A1A431043626A33
:10328000042A03D1236BE26A1A43104308602068C2
:10329000406920F00701606A40EA0105012704281F
:1032A0000ED1A06A0543E06A50B12046FEF7DEFC6D
:1032B00030B14020606584F835700120BDE8F081B0
:1032C000206845612046FEF7B7FC94F85C103F2269
:1032D00002FA01F18160666584F835700020BDE86E
:1032E000F08100003F8010F070B504460025A66D07
:1032F00094F8340001280DD0012084F8340094F8AB
:1033000035C00020BCF1010F06D084F8340002253E
:10331000284670BD022070BD4FF0020C84F835C005
:1033200060652046FEF7E1FC94F85C003F2101FA5D
:1033300000F0B0602068016841F016010160206C67
:1033400020B12068016841F008010160206801682F
:1033500041F001010160DBE770B5044600F04AFA74
:103360000546B4F1FF3F02D004480078044400F061
:1033700041FA401BA042FAD370BD00000C040020AB
:103380002DE9F04104460F46DFF8988098F81800C0
:1033900001280AD0012088F818004CF25030FEF7BE
:1033A000B3FE0246100003D035E00220BDE8F081F4
:1033B0004FF0FF30386020681B4E012815D0A568FB
:1033C000E0682844A84224D9217C2846FEF7ACFDB9
:1033D0004CF25030FEF798FE0246306820F0FA00BA
:1033E000306010000FD03D6013E0207C6168FEF774
:1033F000EFFD4CF25030FEF787FE0246306820F0B9
:103400000400306005E06D1CA168E0680844A84233
:10341000DAD8FEF7B1FD002088F818001046BDE8A4
:10342000F081000098490020103C024003480168E8
:1034300041F000410160002070470000103C024054
:103440002DE9F0410646884614461D461A4F387E3F
:10345000012807D0012038764CF25030FEF754FE98
:1034600018B115E00220BDE8F081AEB1012E18D0F0
:10347000022E1BD022462B464046FEF7CDFD4CF2D5
:103480005030FEF741FE0D490A6822F001020A6041
:1034900000213976BDE8F081E1B24046FEF7ACFD8F
:1034A000EDE7A1B24046FEF7D1FDE8E721464046F0
:1034B000FEF7DEFDE3E7000098490020103C0240E3
:1034C000002008490A6812F0004F09D0074A064B4D
:1034D0001360074B1360096811F0004F00D0012002
:1034E00070470000103C024023016745043C024045
:1034F000AB89EFCD10B50446102C11D11F480078D0
:1035000040F001001D4908701D48007840F001009E
:103510001B4908701B48007870B30AF0C7FE2BE007
:10352000202C0BD11848007840F001001649087093
:103530001448007800B30AF0B9FE1DE0082C06D14B
:103540001248007840F001001049087014E0012C86
:1035500012D111F0D3FD01280ED00D490D4800689D
:1035600011F088FB0A48006830B120070A4908605A
:10357000BFF34F8FBFF36F8F10BD0000EA02002032
:10358000EB020020ED020020E9020020EC02002006
:1035900060030020C402002004ED00E010B50449DF
:1035A0000A68024202D00860FFF7A4FF10BD0000C5
:1035B000143C01402DE9F84F0022DFF81492DFF8A7
:1035C00014A2DFF814B24FF0010E03274FF00F08DA
:1035D0000EFA02FC0B6803EA0C0363457DD10C79FB
:1035E00004F00304012C01D0022C14D1856854008E
:1035F00007FA04F6B543CE6806FA04F42C43846057
:10360000446824EA0C0C0C79C4F30014944044EA96
:103610000C0CC0F804C0D1F804C037EA0C0C0CD074
:10362000C4684FEA420C07FA0CF5AC438D6805FA02
:103630000CFC4CEA040CC0F80CC091F804C00CF06F
:10364000030CBCF1020F12D14FEAD20C00EB8C0438
:10365000256A4FEA427C4FEADC6C08FA0CF6B54367
:103660000E6906FA0CFC4CEA050CC4F820C004688C
:103670004FEA420C07FA0CF5AC430D7905F003054F
:1036800005FA0CFC4CEA040CC0F800C0D1F804C0E8
:103690001CF4403F7DD0D9F800C04CF4804CC9F8F0
:1036A00000C0D9F800C00CF4804CCDF800C022F066
:1036B000030C0CF1804505F59835D5F808C894073A
:1036C000240F08FA04F62CEA0606A0F1804CBCF59B
:1036D000003C64D0A0F1804C00E05AE0BCF5013C15
:1036E00060D0A0F1804CBCF5023C5ED0A0F1804CD3
:1036F000BCF5033C5CD0A0F1804CBCF5043C5AD036
:10370000A0F1804CBCF5053C58D0A0F1804CBCF534
:10371000063C56D0A0F1804CBCF5073C54D04FF08D
:10372000080C0CFA04FC4CEA060CC5F808C8DAF8D8
:1037300000C02CEA030C4C6814F4803F01D04CEA22
:10374000030CCAF800C0254CD4F800C02CEA030CC6
:103750004D6815F4003F01D04CEA030CC4F800C0DA
:10376000DBF800C02CEA030C4C6814F4801F01D075
:103770004CEA030CCBF800C0194CD4F800C02CEA7A
:10378000030C4D6815F4001F01D04CEA030CC4F87B
:1037900000C0521C102AFFF41BAFBDE8F88F4FF099
:1037A000000CBEE74FF0010CBBE74FF0020CB8E78E
:1037B0004FF0030CB5E74FF0040CB2E74FF0050CE7
:1037C000AFE74FF0060CACE74FF0070CA9E700009D
:1037D00044380240003C0140083C0140043C0140A8
:1037E0000C3C0140002A01D08161704709048161CD
:1037F0007047000001488068704700000C040020FA
:1038000070B50446002C04D094F83D00002510B19A
:1038100006E0012070BD84F83C50204600F0E0FA3C
:10382000242084F83D002068016821F00101016036
:103830002068016841F4004101602068016821F4BA
:103840000041016001F0B6FA544B6168994203D817
:103850005349884203D304E05249884201D20120EF
:1038600070BD5149B0FBF1F12268D2F804C02CF0D0
:103870003F0C4CEA010CC2F804C062689A4201D8BD
:103880004A1C07E04FF4967251434FF47A72B1FB31
:10389000F2F14A1C2168D1F820C02CF03F0C42EA1A
:1038A0000C020A626168994210D84900401EB0FBC0
:1038B000F1F2521CC2F30B02042A01D2042026E0CA
:1038C000B0FBF1F0401CC0F30B0020E0A268002A1E
:1038D00050D001EBC10303EB0113A0F1010CBCFBC1
:1038E000F3F35B1C43F480431B051B0D4AD0002AF5
:1038F0004AD001EBC10202EB0111401EB0FBF1F016
:10390000401CC0F30B0040F4804040F400402168AC
:10391000CA6922F0FF0222F44F421043C861216AB3
:10392000E06901432068026822F0C002114301608F
:10393000E168206901432068826822F0FF0222F4D6
:10394000034211438160A169606901432068C26834
:1039500022F0FF021143C1602068016841F00101BB
:1039600001602564202084F83D00256384F83E50E2
:10397000002070BD01EB4103A0F1010CBCFBF3F38F
:103980005B1CB1E70120C2E701EB4101401EB0FB27
:10399000F1F0401CC0F30B00B7E70000A086010067
:1039A00080841E0000093D0040420F002DE9FF4FBA
:1039B00083B004468A469346DDF84490DDF84080A3
:1039C000129EFFF717FF054694F83D00202803D00C
:1039D00007B00220BDE8F08F19230122A04920463C
:1039E000009502F0E7FE18B107B00220BDE8F08FA5
:1039F00094F83C00012808D0012084F83C0020689D
:103A0000016811F0010F04D007E007B00220BDE803
:103A1000F08F016841F0010101602068016821F424
:103A200000610160222084F83D00402084F83E00BF
:103A300000272764C4F82480A4F82A90608D20858C
:103A40008848E062019500965A4651462046069BFA
:103A500002F070FD18B107B00120BDE8F08F208D95
:103A600010B3012829D0022835D020684169806927
:103A70000290208D002800F0E880DFF8EC81208D96
:103A8000032800F2B780012834D002284AD03346F8
:103A9000002241462046009502F08CFE00286CD0A2
:103AA00007B00120BDE8F08F20684169816902916B
:103AB000016841F400710160DBE72068016821F4CE
:103AC000806101602068416981690291016841F467
:103AD00000710160CDE72068016821F48061016018
:103AE0002068016841F400610160206841698069D3
:103AF0000290BEE72A463146204602F01CFF18B16C
:103B000007B00120BDE8F08F20680069616A087085
:103B1000606A401C6062208D401E2085608D401EC2
:103B200060858EE03346002241462046009502F033
:103B300041FE18B107B00120BDE8F08F2068016890
:103B400041F40071016020680069616A0870606A70
:103B5000401C6062218D491E2185618D491E618551
:103B6000216809690170606A401C6062208D401EF6
:103B70002085608D401E608563E02068016821F427
:103B80008061016020680069616A0870606A401C99
:103B90006062208D401E2085608D401E608533460A
:103BA000002241462046009502F004FE18B107B0FD
:103BB0000120BDE8F08F2068016841F400710160C8
:103BC00020680069616A0870606A401C6062218D2B
:103BD000491E2185618D491E618521680969017031
:103BE000606A401C6062208D401E2085608D401EF2
:103BF000608526E02A463146204602F09CFE18B138
:103C000007B00120BDE8F08F20680069616A087084
:103C1000606A401C6062218D491E2185618D491EAC
:103C200061852268516911F0040F0AD01169017091
:103C3000606A401C6062208D401E2085608D401EA1
:103C40006085208D00287FF41AAF202084F83D0085
:103C500084F83E7084F83C7007B00020BDE8F08F17
:103C6000020010000000FFFF040001002DE9FF4FDB
:103C700083B004468A469346DDF84490DDF84080E0
:103C8000129EFFF7B7FD054694F83D00202803D0AB
:103C900007B00220BDE8F08F192301224E492046CB
:103CA000009502F087FD18B107B00220BDE8F08F43
:103CB00094F83C00012808D0012084F83C002068DA
:103CC000016811F0010F04D007E007B00220BDE841
:103CD000F08F016841F0010101602068016821F462
:103CE00000610160212084F83D00402084F83E00FE
:103CF00000272764C4F82480A4F82A90608D2085CA
:103D00003648E062019500965A4651462046069B89
:103D100002F0BAFC18B107B00120BDE8F08F208D89
:103D2000002836D02A463146204602F042FE58B1DD
:103D3000206C042804D12068016841F400710160FE
:103D400007B00120BDE8F08F606A21680078086143
:103D5000606A00F1010CC4F824C0208D401E80B2BE
:103D60002085618D491E61852368596911F0040F12
:103D70000CD058B19CF800001861606A401C606269
:103D8000208D401E2085608D401E6085208D00287E
:103D9000C8D12A463146204602F0DEFC58B1206CDC
:103DA000042804D12068016841F40071016007B063
:103DB0000120BDE8F08F2068016841F400710160C6
:103DC000202084F83D0084F83E7084F83C7007B0F1
:103DD0000020BDE8F08F0000020010000000FFFF8F
:103DE00010B586B00446142101A8FCF764FC4449D0
:103DF000206888422FD100BF002000904148006811
:103E000040F020003F4908600846006800F02000AC
:103E1000009000BF00BF03200190122002900120FB
:103E20000390032004900420059001A93648FFF771
:103E3000C1FB00BF0020009032481030006840F401
:103E400080003049103108600846006800F48000A6
:103E5000009000BF51E02D49206888424DD100BF3D
:103E6000002000902748006840F0040025490860C1
:103E70000846006800F00400009000BF00BF00BFCB
:103E8000002000900846006840F0010008600846E5
:103E9000006800F00100009000BF00BF48150190CD
:103EA000122002900020039003200490042005902B
:103EB00001A91748FFF77EFB4FF480700190122094
:103EC000029000200390032004900420059001A993
:103ED0001048FFF76FFB00BF00200090094810302A
:103EE000006840F400000749103108600846006887
:103EF00000F40000009000BF00BF06B010BD00003D
:103F0000005800403038024000140240005C00407D
:103F10000008024000000240024881680278114413
:103F2000816070470C04002010B50B48016841F413
:103F300000710160016841F480610160016841F431
:103F400080710160032000F0BBF80F2000F006F83C
:103F500000F04AF8002010BD003C024070B588B067
:103F600004460025002600222146372000F074F880
:103F7000372000F063F800BF002001901648006869
:103F800040F02000144908600846006800F0200056
:103F9000019000BF00BF02A903A800F0E7FE00F0F7
:103FA00009FF45000D48B5FBF0F0461E0C480D49D1
:103FB000086040F2E7310B48C160466000210161B2
:103FC000816001F0BAFC20B9064801F09BFD08B001
:103FD00070BD0120FBE700004038024040420F0066
:103FE00000140040240E002008B500BF00200090FF
:103FF0001148006840F480400F4908600846006896
:1040000000F48040009000BF00BF00BF002000907F
:10401000081F006840F08050091F086008460068CB
:1040200000F08050009000BF00BF00220F21901EC2
:1040300000F012F808BD00004438024000280ADBF6
:1040400000F01F01012202FA01F14009800000F195
:10405000E020C0F80011704710B4184B1B68C3F380
:104060000223C3F1070CBCF1040F01D94FF0040C7B
:104070001C1D072C01D2002300E0DB1E012404FAE2
:104080000CFCACF1010C0CEA0101994004FA03F3B9
:104090005B1E1A401143002806DB00F1E0200901F5
:1040A00080F8001410BC704700F00F0000F1E02011
:1040B000090180F8141D10BC704700000CED00E0F1
:1040C00000F00700064A11684FF6FF03194041EA65
:1040D000002040F0FD7040F08060106070470000EC
:1040E0000CED00E07047006841620020704730B47A
:1040F0000368586A00291BD0D3F828C000EB1C4C79
:1041000000200129A1F101014FF4827408D004EBD1
:1041100080055D590CEB154C401CC0B28842F6D3AB
:1041200004EB81014CEA0240585030BC002070473B
:1041300040EA02409862F8E7D0F8040405F087B935
:10414000C1EBC10200EB8202D0F80404926C05F0CE
:10415000E8B8C1EBC10200EB8202D0F80404D2F847
:10416000082205F03CB9D0F8040405F072B970B526
:10417000044611F0800F01F00F00C0EBC00104EB0A
:1041800081014FF001024FF0000502D03C314A702E
:1041900002E001F5FE714D70087094F8BC0301282F
:1041A00008D084F8BC23206805F094FD84F8BC5343
:1041B000002070BD022070BD70B5044601F00F02F2
:1041C0006068824201D9012070BD01F00F00C0EB90
:1041D000C00011F0800F04EB80004FF001034FF09E
:1041E000000503D000F13C014B7002E000F5FE71C8
:1041F0004D708D700A7094F8BC03012808D084F8C3
:10420000BC33206805F078FF84F8BC53002070BDF3
:10421000022070BD01F00F01C1EBC10100EB810074
:10422000D0F81402704770B5044611F0800F01F009
:104230000F00C0EBC00104EB81014FF0010C4FF007
:10424000000503D03C3181F801C002E001F5FE71A8
:104250004D7008708A60CB704A7802B1C880022B1A
:1042600000D10D7194F8BC03012808D084F8BCC3B8
:10427000206805F06DFC284684F8BC5370BD022010
:1042800070BD10B50C4604F00F0CCCEBCC0100EB6C
:10429000810101F5FE71CA604B6100238B614B7097
:1042A00081F800C00369012B00D10A6114F00F0FDF
:1042B00005D0027C006805F07AFF002010BD027C6A
:1042C000006805F053FEF8E770B504460D466168D6
:1042D00005F00F00884201D9012070BD15F0800F54
:1042E0004FF000064FF0010206D0C0EBC00104EB16
:1042F00081013C314A7006E0C5EBC50104EB810148
:1043000001F5FE714E708A70087094F8BC030128A4
:1043100008D084F8BC23206805F01AFF15F00F0FB1
:1043200002D007E0022070BD217C04F57172206884
:1043300005F0B2FE84F8BC63002070BD10B50C46D9
:1043400004F00F0CCCEBCC0100EB81013C31CA60D6
:104350004B6100238B6101234B7081F800C003691E
:10436000012B00D10A6114F00F0F05D0027C006808
:1043700005F01DFF002010BD027C006805F0F6FD71
:10438000F8E72DE9F05F04462568284606F06CF84A
:1043900000287DD1206806F093F8002878D02068A6
:1043A00006F08EF810F0020F04D02068416901F089
:1043B00002014161206806F083F810F0100F36D03A
:1043C0002068816921F0100181612F6A07F00F00D8
:1043D000C0EBC00004EB800000F5FE76C7F343405D
:1043E000022802D0062812D01CE047F6F0700742DF
:1043F00018D0C7F30A1217462846F16806F064F889
:10440000F0683844F060B0693844B0610AE00822CE
:1044100004F57171284606F057F8B069C7F30A1120
:104420000844B0612068816941F010018161206811
:1044300006F046F810F4002F4FF001094FF0080A7B
:104440004FF0100B45D00026206806F018F8804683
:104450005FEA08003DD018F0010F34D0F1B22068B7
:1044600006F026F8074617F0010F07D005EB4610B7
:10447000C0F8089B3146204603F058FC17F0080F9F
:1044800009D005EB4610C0F808AB3146204600E0E5
:1044900090E103F027FC17F0100F03D005EB461056
:1044A000C0F808BB17F0200F04D005EB4611202000
:1044B000C1F8080B17F4005F05D005EB46114FF467
:1044C0000050C1F8080B761C4FEA5808B8F1000FED
:1044D000C1D1206805F0F4FF10F4802F63D020686C
:1044E00005F0C6FF80460026B8F1000F5BD018F03B
:1044F000010F52D0F1B2206805F0C8FF074617F04F
:10450000010F25D006F00F0009FA00F0D5F8341895
:1045100021EA0000C5F8340805EB4610C0F80899F8
:104520002069012810D1C6EBC60004EB8000426C64
:10453000816C114481643EB9206D28B904F5717213
:104540000121206805F0A8FDF1B22046FFF7F8FD33
:1045500017F0080F03D005EB4610C0F808A917F0B4
:10456000100F03D005EB4610C0F808B917F0400F44
:1045700004D005EB46114020C1F8080917F0020FDE
:1045800004D005EB46110220C1F8080917F0800F8E
:1045900003D03146204603F03FFC761C4FEA580812
:1045A000B8F1000FA3D1206805F08AFF10F0004F8A
:1045B00011D0D5F8040820F00100C5F8040894F8DB
:1045C000F403012867D0204600F0F7F9206841691C
:1045D00001F000414161206805F072FF10F4006FA6
:1045E0000CD0D5F8080810F0010F02D0204600F0DA
:1045F00029FA2068416901F400614161206805F0F1
:104600005FFF10F4805F6CD0D5F8040820F0010043
:10461000C5F804081021206805F0FCFE0021606840
:10462000002823D94FF67F3205EB4110C0F8082946
:10463000D0F8003923F40013C0F80039D0F800395D
:1046400043F00063C0F80039C0F8082BD0F8003BF5
:1046500023F40013C0F8003BD0F8003B43F00063A4
:10466000C0F8003B491C60688842DDD8D5F81C08BA
:1046700040F00110C5F81C08206BA0B1D5F88408E3
:1046800040F00B00C5F88408D5F8440840F00B0052
:10469000C5F8440814E0002084F8F4030021204603
:1046A000FFF720FD92E7D5F8140842F22B010843EA
:1046B000C5F81408D5F8100840F00B00C5F810082C
:1046C000D5F8000820F4FE60C5F80008217C04F548
:1046D0007172206805F0E0FC2068416901F48051A6
:1046E0004161206805F0ECFE10F4005F16D02068F0
:1046F00005F07CFA206805F0A7FEE06000F054FBAE
:1047000023680146227B184605F04AFF204600F048
:104710003DF92068416901F400514161206805F0CC
:10472000CFFE10F0080F07D0204600F04AF92068AD
:10473000416901F008014161206805F0C1FE10F4F3
:10474000801F08D00021204600F036F8206841691B
:1047500001F480114161206805F0B2FE10F4001FE1
:1047600008D00021204600F02BF82068416901F4B0
:1047700000114161206805F0A3FE10F0804F07D0C2
:104780002046FFF7D9FC2068416901F08041416172
:10479000206805F095FE10F0040F0BD020684568E6
:1047A00015F0040F02D02046FFF7DDFC20684168B9
:1047B00029434160BDE8F09FD0F8040404F09BBE9B
:1047C000D0F8040404F0A8BE2DE9F0478AB00446EE
:1047D000002C05D0266894F8BD03002520B108E020
:1047E0000AB00120BDE8F08784F8BC53204600F0F1
:1047F0008BF8032084F8BD03F06B10F4807F00D1A8
:104800002561206805F0ACFB04F11000D4F82C8081
:1048100090E80F10A76A666A8DE80F10CDF81C802B
:1048200006970596616B206B0991089094E80F003C
:1048300005F0EAF9022728B184F8BD730AB0012017
:10484000BDE8F0870021206805F062FE0021606865
:104850000126002813D9C1EBC10004EB800080F8C9
:104860003D6080F83C10A0F8421080F83F5045644D
:1048700085640565481CC1B260688842EBD8002198
:104880006068002814D9C1EBC10004EB800080F8F7
:10489000FD5180F8FC1180F8FF51C0F80452C0F8B7
:1048A0000852C0F81052481CC1B260688842EAD869
:1048B00004F11000D4F82CA090E80F10D4F8289040
:1048C000D4F824808DE80F10CDF81CA0CDF81890F6
:1048D000CDF81480616B206B0991089094E80F006B
:1048E00005F082FA28B184F8BD730AB00120BDE852
:1048F000F08784F8385084F8BD63206805F066FAC4
:104900000AB00020BDE8F08700B587B00021029111
:1049100003910491059106910068B0F1A04F2BD14D
:104920001648016841F001010160006800F00100D3
:1049300001904FF4C0500290022003900320059094
:104940000A20069002A90E48FEF734FE0D480168C1
:1049500041F0800101600C48016841F48041016030
:10496000006800F480400190002205214320FFF7F9
:1049700073FB4320FFF762FB07B000BD30380240F5
:1049800000000240343802404438024070B504460A
:104990000125E06800280ED0022801D0FDF7C0FAFA
:1049A0002946D4F8040404F026FED4F80404BDE833
:1049B000704004F0D7BD0025F2E7D0F8040404F0FD
:1049C000FFBDD0F8040404F005BE10B5044694F809
:1049D000BC0301280BD0012084F8BC0384F83810F4
:1049E000206805F0C5FD002084F8BC0310BD02203E
:1049F00010BDD0F8042400F57171104604F007BE14
:104A000010B50446206894F8BC13012906D0012192
:104A100084F8BC13A16A012902D008E0022010BD6D
:104A2000A169012903D0816B41F480318163206841
:104A300005F0D1FC206805F0BBF9002084F8BC0328
:104A400010BD000010B50446D4F8040404F023FEA1
:104A50002068D0F8001E41F00101C0F8001E206A55
:104A6000002804D00248016841F00601016010BD31
:104A700010ED00E02DE9F84304464FF001082078DE
:104A80004FF0000710F0050F33D0DFF84491C9F85C
:104A90006870FEF7AFFE06464E4D286810F0006FB6
:104AA0000BD0FEF7A7FE801B022802D90320BDE829
:104AB000F883286810F0006FF3D16068217A8001D4
:104AC00040EA017044490860C9F86880FEF792FE28
:104AD0000646286810F0006F0BD1FEF78BFE801B96
:104AE000022802D90320BDE8F883286810F0006F7F
:104AF000F3D0207810F0020F5CD03848016841F004
:104B000080510160006800F080500090344D2868AA
:104B100040F480702860FEF76DFE0646286810F4A9
:104B2000807F0BD1FEF766FE801B022802D903208E
:104B3000BDE8F883286810F4807FF3D0294D2868F9
:104B400000F4407028B3A18901F44071814220D063
:104B5000286820F440702449C1F800800F60286064
:104B6000286810F0010F14D0FEF744FE06462868AE
:104B700010F0020F0DD141F28837FEF73BFE801B8B
:104B8000B84202D90320BDE8F883286810F0020F6C
:104B9000F3D0E0684FF4407131EA000213490CD0C1
:104BA000086820F4F81008602868A189C1F30B0197
:104BB000084328600020BDE8F8830A6820F44070AC
:104BC00022F4F81220F0704010430860ECE7000077
:104BD000000047420038024084380240403802401A
:104BE0000070004070380240400E474208380240D2
:104BF0002DE9F04704460D46002C13D0DFF8549100
:104C0000D9F80000EFB200F00700A8420DD289F8F1
:104C10000070D9F8000000F00700A84205D001207C
:104C2000BDE8F0870120BDE8F08720684A4E10F00B
:104C3000020F14D010F0040F03D0306840F4E0509D
:104C40003060207810F0080F03D0306840F46040E6
:104C500030603068A16820F0F000084330602078B0
:104C600010F0010F3ED060683C49012808D00228AE
:104C70000DD003280BD0096811F0020F28D00AE0EC
:104C8000096811F4003F06D10120BDE8F0870968EA
:104C900011F0007F19D0316821F003010843306022
:104CA000FEF7A8FD80463068616800F00C00B0EBAC
:104CB000810F17D041F2883AFEF79CFDA0EB080067
:104CC000504508D90320BDE8F0870120BDE8F087F2
:104CD0000120BDE8F0873068616800F00C00B0EB9F
:104CE000810FE9D1D9F8000000F00700A8420AD9E5
:104CF00089F80070D9F8000000F00700A84202D03F
:104D00000120BDE8F087207810F0040F05D030684E
:104D1000E16820F4E05008433060207810F0080F7C
:104D200006D03068216920F4604040EAC10030605C
:104D300000F060F831680A4AC1F30311515CC840C1
:104D40000849086008480068FFF708F90020BDE836
:104D5000F0870000003C0240083802400038024062
:104D6000F06E010818040020100400200F220260D9
:104D70000B4A136803F003034360136803F0F00366
:104D80008360136803F4E053C360126802F4604266
:104D9000D20802610348006800F00700086070470D
:104DA00008380240003C024001480068704700009B
:104DB0001804002000B5FFF7F7FF04490968044A0A
:104DC000C1F38221515CC84000BD00000838024098
:104DD000006F010800B5FFF7E7FF04490968044ABE
:104DE000C1F34231515CC84000BD000008380240A8
:104DF000006F010810B51748006810F00C01164844
:104E000016D0164B042912D0082911D1144C216850
:104E100001F03F02216811F4800F0AD02068C0F32E
:104E20008810A0FB03010023FBF716FB09E01846DE
:104E300010BD21680023C1F38811A1FB0001FBF71D
:104E40000BFB2168C1F30141491C4900B0FBF1F0A3
:104E500010BD0000083802400024F400001BB70019
:104E6000043802402DE9F84F0446002C12D0207877
:104E7000FB4E10F0010FA6F1040563D0301D016850
:104E800001F00C0104290CD0006800F00C00082887
:104E900003D010E00120BDE8F88F306810F4800FD7
:104EA00009D0286810F4003F4CD06068002849D130
:104EB0000120BDE8F88F6068B0F5803F14D0B0F5F0
:104EC000A02F16D0286820F480302860286820F4AD
:104ED00080202860606810B3FEF78CFC07462868C5
:104EE00010F4003F0ED02DE0286840F48030286098
:104EF000F0E7286840F480202860286840F480307B
:104F00002860E7E7FEF776FCC01B642802D903207F
:104F1000BDE8F88F286810F4003FF3D012E0FEF7E8
:104F200069FC0746286810F4003F0BD0FEF762FCCE
:104F3000C01B642802D90320BDE8F88F286810F44C
:104F4000003FF3D12078C74F10F0020F4FF0000957
:104F500057D0C548016811F00C0F14D0006800F05C
:104F60000C00082803D1306810F4800F0BD0E068E3
:104F700080B301203860FEF73DFC8046286810F0C1
:104F8000020F12D01EE0286810F0020F05D0E06872
:104F9000012802D00120BDE8F88F2868216920F09F
:104FA000F80040EAC10028602BE0FEF723FCA0EBEC
:104FB0000800022802D90320BDE8F88F286810F005
:104FC000020FF2D02868216920F0F80040EAC10001
:104FD000286016E0FFE7C7F80090FEF70BFC80465C
:104FE000286810F0020F0CD0FEF704FCA0EB0800BC
:104FF000022802D90320BDE8F88F286810F0020FBC
:10500000F2D1207810F0080F35D09848DFF860A270
:105010006169C1B101210160FEF7ECFB8046DAF85D
:10502000000010F0020F26D1FEF7E4FBA0EB080011
:10503000022802D90320BDE8F88FDAF8000010F04A
:10504000020FF1D017E0C0F80090FEF7D3FB8046C6
:10505000DAF8000010F0020F0DD0FEF7CBFBA0EB4A
:105060000800022802D90320BDE8F88FDAF8000012
:1050700010F0020FF1D1207810F0040F71D04FF032
:1050800000087C48006810F0805F0AD17948016808
:1050900041F080510160006800F0805000904FF0B6
:1050A0000108DFF8D4B1DBF8000010F4807F1BD1D9
:1050B000DBF8000040F48070CBF80000FEF79AFBAC
:1050C0008246DBF8000010F4807F0DD1FEF792FBE2
:1050D000A0EB0A00022802D90320BDE8F88FDBF814
:1050E000000010F4807FF1D0A068DFF890B10128B3
:1050F00018D005281DD0DBF8000020F00100CBF807
:105100000000DBF8000020F00400CBF80000A068ED
:1051100040B3FEF76FFB8246DBF8000010F0020F91
:1051200014D03EE0DBF8000040F00100CBF80000B6
:10513000EDE7DBF8000040F00400CBF80000DBF8FE
:10514000000040F00100CBF80000E0E7FEF752FB62
:10515000A0EB0A0141F28830814204D90320BDE866
:10516000F88F26E005E0DBF8000010F0020FEDD02C
:1051700017E0FEF73FFB8246DBF8000010F0020F5D
:105180000FD0FEF737FBA0EB0A0141F288308142D5
:1051900002D90320BDE8F88FDBF8000010F0020F01
:1051A000EFD1B8F1010F04D13248016821F08051EC
:1051B0000160A069F0B32C4909684FF0FF3801F095
:1051C0000C01082966D0022810D0C7F86090FEF7BD
:1051D00011FB0446286810F0007F2BD0FEF70AFB75
:1051E000001B022851D90320BDE8F88FC7F8609052
:1051F000FEF700FB8146286810F0007F0CD0FEF718
:10520000F9FAA0EB0900022802D90320BDE8F88FC3
:10521000286810F0007FF2D1216AE069A26A084391
:10522000616A08EB5202890141EA0241084394F89D
:105230002C1000E055E040EA016030600120386643
:10524000FEF7D8FA0446286810F0007F49D1FEF72F
:10525000D1FA001B022813D90320BDE8F88F000003
:10526000043802400000474208380240800E47429E
:1052700074380240403802400070004070380240EC
:10528000286810F0007FE2D02BE0286810F0007F43
:10529000A4D126E0012822D03068E26900F4800120
:1052A00091421AD1226A00F03F01914215D147F68E
:1052B000C071626A0140B1EB821F0ED1A26A00F494
:1052C000403108EB5202B1EB024F06D194F82C109A
:1052D00000F07060B0EB016F03D00120BDE701204A
:1052E000BBE70020B9E770B50446002C02D0607F10
:1052F00010B106E0012070BD00202077204600F0AC
:105300004FF8022060772168CA2048622168532044
:105310004862204602F054FEFF25042620B1206892
:1053200045626677012070BD2068816821F04001E8
:1053300021F4E0018160206881686268636911433B
:1053400022691A43114381602168E068086120687E
:105350000169228941EA024101612068C16821F0A6
:105360008001C1602068806810F0200F08D12046BD
:1053700000F034F820B1206845626677012070BDE6
:105380002068016C21F4802101642068016CA2690D
:10539000114301642068456201206077002070BDE0
:1053A0001FB5044600200090019002900390094927
:1053B000206888420CD102200090000203906846C9
:1053C000FFF758FB08B1FCF7ABFD0120024908606C
:1053D0001FBD0000002800403C0E474270B5044647
:1053E0002068C16821F0A001C160FEF703FA0546FC
:1053F0002068C06810F0200F0CD1FEF7FBF9401BAD
:10540000B0F57A7F01D9032070BD2068C06810F024
:10541000200FF2D0002070BD70B50446002C09D0DA
:10542000606A002540B125616561A56294F851006C
:1054300040B10CE0012070BD6068B0F5827FF4D00F
:10544000E561F2E784F85050204600F045F802206C
:1054500084F851002068016821F040010160A088B3
:10546000218900F4827001F404410843A18901F408
:1054700000610843217C01F002010843217D01F015
:1054800001010843218B01F400710843217F01F0E1
:105490003801084394F8201001F080010843218D61
:1054A00001F40051084321680860A169042000EA62
:1054B000114094F8241001F010010143206841606C
:1054C0002068C16921F40061C1616565012084F82B
:1054D0005100002070BD000010B586B004461421B4
:1054E00001A8FBF7E8F86749206888427ED100BF31
:1054F000002000906448006840F4805062490860D1
:105500000846006800F48050009000BF00BF00BF54
:10551000002000905C481438006840F002005A49AE
:10552000143908600846006800F00200009000BFCF
:1055300000BF00BF002000900846006840F0010056
:1055400008600846006800F00100009000BF00BF3E
:105550001820019002200290012003900320049063
:105560000520059001A94948FEF724F88020019004
:105570000220029001200390032004900520059052
:1055800001A94348FEF716F84248434908604FF026
:10559000C0604860002140488160C1604FF4806174
:1055A0000161002141618161C1614FF440310162BB
:1055B00000214162FDF722FE08B1FCF7B1FC00BFFB
:1055C0003548E064846300BF3248183033490860CE
:1055D0004FF0C06048604021304881600021C160C8
:1055E0004FF4806101610021416100E010E08161C0
:1055F000C1614FF40031016200214162FDF7FEFDFF
:1056000008B1FCF78DFC00BF2448A064846336E039
:1056100023492068884232D100BF002000901A48F8
:10562000001F006840F480401749091F08600846C1
:10563000006800F48040009000BF00BF00BF002061
:10564000009011481438006840F002000E491439E7
:1056500008600846006800F00200009000BF00BF2C
:105660004FF460400190022002900120039003203B
:1056700004900520059001A90448FDF79BFF06B0A2
:1056800010BD0000003001404438024000040240D8
:105690000000024040640240540A0020B40A002086
:1056A000003800402DE9F84F04460A9E8A4693468A
:1056B0001F4601254FF0000894F8500001280ED035
:1056C000012084F85000FEF795F8814694F85100C7
:1056D000616801280ED0B1F5827F07D102E0022077
:1056E000BDE8F88FA16809B9042803D04FF002087B
:1056F00000F0CBB8BAF1000F1DD0BBF1000F1AD0EB
:10570000380018D094F85100042802D0052084F8FD
:10571000510000206065C4F838B0E787A787C4F857
:1057200030A0E786A786206460642068016811F0D5
:10573000400F03D006E04FF00108A6E0016841F0F9
:1057400040010160E068B0F5006F05D06068002896
:1057500048D0012F46D07EE0606808B1012F3AD1D1
:10576000206B21680088C860206B801C2063E08E5D
:10577000401EE0862FE02068816811F0020F0DD0F6
:10578000E18E59B1012D09D1216B0988C160206BCF
:10579000801C2063E08E401EE08600252068816822
:1057A00011F0010F0BD0E18F49B1C068A16B0880E7
:1057B000A06B801CA063E08F401EE0870125FEF7F0
:1057C00019F8A0EB0900B04205D3B6F1FF3F02D0B3
:1057D0004FF0030859E0E08E0028CCD1E08F00287C
:1057E000C9D13EE0206B216800780873206B401C13
:1057F0002063E08E401EE0862DE02068816811F075
:10580000020F0DD0E18E59B1012D09D1216B09781C
:105810000173206B401C2063E08E401EE086002553
:105820002068816811F0010F0BD0E18F49B1C06889
:10583000A16B0870A06B401CA063E08F401EE08746
:105840000125FDF7D7FFA0EB0900B04202D3B6F166
:10585000FF3F11D186B1E08E0028CED1E08F002825
:10586000CBD14A463146204602F0CCFB38B14FF04E
:1058700001082020606508E04FF0030805E0A068FB
:1058800018B92068C16880680090012084F8510030
:10589000002084F850004046BDE8F88F70477047FC
:1058A00030B490F83C20012A44D0012480F83C40D8
:1058B000022280F83D200268D2F804C093682CF0E0
:1058C000700C0D6845EA0C0CC2F804C00268A2F125
:1058D000804CBCF5803C20D0B2F1804F1DD0A2F1AD
:1058E000804CBCF5806C18D0A2F1804CBCF5006CEB
:1058F00013D0A2F1804CBCF5406C0ED0A2F1804CCC
:10590000BCF5823C09D0A2F1804CBCF5A03C04D08F
:10591000A2F1804CBCF5C05C04D123F0800349683F
:105920001943916080F83D40002180F83C1030BC64
:105930000020704730BC0220704710B50446002C90
:1059400003D094F83D0010B107E0012010BD002005
:1059500084F83C00204600F01FF8022084F83D0047
:10596000211D206802F076FC012084F8460084F8AE
:105970003E0084F83F0084F8400084F8410084F839
:10598000420084F8430084F8440084F8450084F819
:105990003D00002010BD000008B5354A0168914265
:1059A0000FD100BF002100913249096841F0010187
:1059B000304A11601146096801F00101009100BFF1
:1059C00055E00168B1F1804F11D100BF0021009175
:1059D0002849091F096841F00101264A121F116078
:1059E0001146096801F00101009100BF3FE0224A21
:1059F0000168914211D100BF002100911D49091F8A
:105A0000096841F004011B4A121F11601146096820
:105A100001F00401009100BF29E0184A0168914299
:105A200011D100BF002100911249091F096841F0FE
:105A30000801104A121F11601146096801F008019F
:105A4000009100BF13E00E4A016891420FD100BFE0
:105A5000002100910749096841F40031054A1160AD
:105A60001146096801F40031009100BF00BF08BD74
:105A7000000001404438024000080040000C004093
:105A80000044014090F83D10012901D001207047E9
:105A9000022180F83D100068A0F18041B1F580310D
:105AA00026D0B0F1804F23D0A0F18041B1F58061C4
:105AB0001ED0A0F18041B1F5006119D0A0F1804164
:105AC000B1F5406114D0A0F18041B1F582310FD021
:105AD000A0F18041B1F5A0310AD0A0F18041B1F52B
