:020000040800F2
:10000000E89500202D030008C1870008216C000836
:10001000BD870008C30E00085DB6000800000000A0
:100020000000000000000000000000006D02000859
:10003000C71B000800000000C90200086D8C000802
:100040004703000847030008470300084703000868
:1000500047030008470300089D1D000847030008E8
:1000600047030008A71D0008B11D0008470300084A
:10007000051200084703000847030008470300086B
:100080004703000847030008470300084703000828
:10009000690F00084703000847030008BB1D00085C
:1000A0004703000847030008470300084703000808
:1000B00047030008470300084703000847030008F8
:1000C00047030008470300084703000847030008E8
:1000D00047030008F593000847030008BD94000893
:1000E00047030008470300084703000847030008C8
:1000F00047030008470300084703000847030008B8
:1001000047030008470300084703000847030008A7
:10011000470300084703000847030008618D0008F3
:10012000470300084703000815120008AD1A00082D
:100130004703000847030008470300084703000877
:10014000191000084703000847030008C587000886
:10015000BD1A000847030008CD1A0008470300082D
:100160004703000847030008470300084703000847
:100170004703000847030008470300080000000089
:10018000470300084703000800F002F800F05EF89B
:100190000AA090E8000C82448344AAF10107DA45E2
:1001A00001D100F053F8AFF2090EBAE80F0013F0D6
:1001B000010F18BFFB1A43F001031847D0A3010039
:1001C000F0A301000A444FF0000C10F8013B13F0BB
:1001D000070408BF10F8014B1D1108BF10F8015BA0
:1001E000641E05D010F8016B641E01F8016BF9D193
:1001F00013F0080F1EBF10F8014BAD1C0C1B09D1EA
:100200006D1E58BF01F801CBFAD505E014F8016B5B
:1002100001F8016B6D1EF9D59142D6D370470000ED
:100220000023002400250026103A28BF78C1FBD8FF
:10023000520728BF30C148BF0B6070471FB518F088
:1002400088FF00F063FA1FBD10B510BD00F09CFAE6
:100250001146FFF7F3FF16F05DF900F0BAFA03B4A8
:10026000FFF7F2FF03BC00F01FFB00002C4B1968E6
:100270000868B0E8F04F80F30988BFF36F8F4FF044
:10028000000080F3118870470000000008480068F3
:10029000006880F308884FF0000080F3148862B68D
:1002A00061B6BFF34F8FBFF36F8F00DF00BF00BF9A
:1002B00008ED00E0DFF80C00016841F47001016016
:1002C000704700BF88ED00E0EFF30980BFF36F8F48
:1002D000134B1A681EF0100F08BF20ED108A20E99A
:1002E000F04F106009B44FF0500080F31188BFF355
:1002F0004F8FBFF36F8F17F0BFF94FF0000080F3FF
:10030000118809BC19680868B0E8F04F1EF0100F9A
:1003100008BFB0EC108A80F30988BFF36F8F704775
:100320005C050020EFF30580704700000948804716
:1003300009480047FEE7FEE7FEE7FEE7FEE7FEE7C7
:10034000FEE7FEE7FEE7FEE704480549054A064BDF
:1003500070470000518D000889010008E88F0020D7
:10036000E8950020E8910020E89100209FED1A1AFE
:10037000F5EE000A40EE010ABDEEE00AF5EEC00A15
:1003800010EE100AF1EE10FA38BF401E00EE100A0F
:100390001349F7EE001AB8EEC00A30EEC00ADFEDDE
:1003A0000F0A20EE200AFCEEC00A10EE900AC0F3FD
:1003B000080000EE900A01EB8000F8EE600A90ED74
:1003C000011A70EE600A90ED000A71EEE01A21EE5B
:1003D000800A00EE810A704783F9223E0000004443
:1003E000109D0108DFED190AB5EEC00A60EE200A83
:1003F000BDEEE01A11EE100AF1EE10FA38BF401E01
:1004000000EE100A1349F7EE001AB8EEC00A30EEFB
:10041000C00ADFED0F0A60EE200ABCEEE00A10EE23
:10042000100AC0F3080000EE100A01EB8000B8EEDD
:10043000400A90ED011A70EEC00A90ED000A71EECC
:10044000E01A21EE800A00EE810A704783F9223E0D
:1004500000000044109D010853EA020C00F069807E
:100460002DE9F04B4FF00006002B1FBFB3FA83F5C8
:1004700003FA05F424FA05F65E4012BF1643B2FAF9
:1004800082F502FA05F4C5F120051EBF22FA05FC2B
:1004900044EA0C04203556EA044C4FEA144418BFD1
:1004A000641C4FF000084FF00009904271EB030C00
:1004B00039D3002919BFB1FA81F701FA07F6B0FA6A
:1004C00080F700FA07F6C7F120071EBF20FA07FCE5
:1004D00046EA0C062037B6FBF4FCA7EB0507103FF5
:1004E00007F01F0BCBF120060CFA0BFB2CFA06F6DB
:1004F00044BFB3460026202FA4BF5E464FF0000B3A
:100500005BEA060C08BF4FF0010B19EB0B09ABFBC4
:10051000027C48EB0608C01B06FB02CC0BFB03CC9D
:1005200071EB0C01C1E70B46024641464846BDE867
:10053000F08B13B54FF000004FF00001AFF30080D7
:10054000BDE81C40704710B5431C02E010F8011BC9
:1005500071B18107FAD14FF0013202C88C1A8C4375
:1005600014EAC211F9D0C01A0A0603D0C01E10BD89
:10057000C01A10BD0A0401D0801E10BD0902FCD0B3
:10058000401E10BD032A40F2308010F0030C00F032
:10059000158011F8013BBCF1020F624498BF11F8BD
:1005A00001CB00F8013B38BF11F8013BA2F1040276
:1005B00098BF00F801CB38BF00F8013B11F00303EE
:1005C00000F02580083AC0F0088051F8043B083A52
:1005D00051F804CBA0E80810F5E7121D5CBF51F8F4
:1005E000043B40F8043BAFF30080D20724BF11F86E
:1005F000013B11F801CB48BF11F8012B24BF00F8D3
:10060000013B00F801CB48BF00F8012B704710B543
:10061000203AC0F00B80B1E81850203AA0E81850FA
:10062000B1E81850A0E81850BFF4F5AF5FEA027CBB
:1006300024BFB1E81850A0E8185044BF18C918C02A
:10064000BDE810405FEA827C24BF51F8043B40F8CB
:10065000043B08BF7047D20728BF31F8023B48BFB0
:1006600011F8012B28BF20F8023B48BF00F8012BEE
:1006700070474FF000020429C0F0128010F0030C04
:1006800000F01B80CCF1040CBCF1020F18BF00F885
:10069000012BA8BF20F8022BA1EB0C0100F00DB834
:1006A0005FEAC17C24BF00F8012B00F8012B48BF92
:1006B00000F8012B70474FF0000200B51346944636
:1006C0009646203922BFA0E80C50A0E80C50B1F1AA
:1006D0002001BFF4F7AF090728BFA0E80C5048BFBE
:1006E0000CC05DF804EB890028BF40F8042B08BF5C
:1006F000704748BF20F8022B11F0804F18BF00F858
:10070000012B7047704770477047000070B5064C6A
:100710007C44064D7D4403E0206820448047241D2E
:10072000AC42F9D170BD0000989E0100A89E010066
:1007300010B500F009F8006810BD10B5044600F0CF
:1007400003F8046010BD000000487047888F002047
:100750001FB584B000200A9C06AB04AA02A900942D
:10076000AFF3008018B1DDE9020108B010BD034805
:10077000204000F037F800200146F6E70000207C1A
:1007800000487047888F00207546FFF7F9FFAE4696
:1007900005006946534620F00700854618B020B58D
:1007A000FFF7D2FDBDE820404FF000064FF00007F4
:1007B0004FF000084FF0000B21F00701AC46ACE809
:1007C000C009ACE8C009ACE8C009ACE8C0098D4676
:1007D000704710B50446AFF300802046BDE81040D6
:1007E000FFF73DBD10B500F009F8BDE81040AFF3CC
:1007F0000080002801D000F057B8704710B50228DB
:1008000003D0410103D50DA112E0002010BD01016C
:1008100001D50FA10CE0C10001D511A108E08100B4
:1008200001D512A104E0400001D513A100E0002190
:1008300015A000F040F8012010BD0000496E76615F
:100840006C6964204F7065726174696F6E0000009E
:10085000446976696465204279205A65726F0000A8
:100860004F766572666C6F7700000000556E6465A8
:1008700072666C6F77000000496E65786163742062
:10088000526573756C7400005349474650453A20D1
:1008900041726974686D6574696320657863657019
:1008A00074696F6E3A20000001491820ABBEFEE764
:1008B00026000200704770B505460C460A2000E08D
:1008C0006D1C00F011F835B128780028F8D102E04D
:1008D000641C00F009F814B120780028F8D1BDE8B4
:1008E00070400A20AFF3008008B569468DF800001B
:1008F0000320ABBE08BD00004A494A6822F44032DA
:100900004A604A6843681A434A6001684A6822F4A8
:1009100080724A6001684A68036942EA03224A60B9
:1009200001684A6822F040724A6001684A68836838
:100930001A434A6001688A6822F400628A6001688A
:100940008A68C3681A438A60816A6FF07062D14214
:1009500014D001688A6822F070628A6001688A682F
:10096000836A1A438A6001688A6822F040528A606A
:1009700001688A68C36A1A438A6009E001688A6864
:1009800022F070628A6001688A6822F040528A60B0
:1009900001688A6822F002028A6001688A68037E20
:1009A00042EA43028A6090F8201089B101684A68DF
:1009B00042F400624A6001684A6822F460424A6078
:1009C00001684A68436A5B1E42EA43324A6004E0B7
:1009D00001684A6822F400624A600168CA6A22F427
:1009E0007002CA620168CA6A838B5B1E42EA0352C4
:1009F000CA6201688A6822F400728A6001688A68A3
:100A000090F8303042EA43228A6001688A6822F412
:100A100080628A6001688A68406942EA8020886052
:100A2000704700000023014010B52DED028BB0EEA1
:100A3000408AB0EE480A14F07FFABDEC028B10BD7C
:100A400010B52DED028BB0EE408AF0EE608AF0EE2C
:100A5000680AB0EE480A14F005FBBDEC028B10BD2D
:100A600010B52DED028BB0EE408AB0EE480AFFF7CC
:100A70007DFCBDEC028B10BDF0EE400AF5EEC00A25
:100A8000F1EE10FA02DDB0EE600A7047B1EE600AD6
:100A9000FBE7000018B19FED020A80ED000A7047E5
:100AA0000000000018B1B3EE060A80ED000A70479E
:100AB00070B52DED0C8B84B006460C4615469FEDA7
:100AC000990AF0EE408A9FED970AB0EE409A9FEDAA
:100AD000950AF0EE40BA9FED930AF0EE409A9FED32
:100AE000910AB0EE40AA0EB104B11DB904B0BDEC3C
:100AF0000C8B70BD8C48FFF7CDFF8C48FFF7D2FF01
:100B00008A48D0ED000A9FED8A1A60EE810AB0EEA5
:100B1000600A00F02DF9F0EE408A28EEA80AF0EE07
:100B2000408A8248D0ED000AB0EE001A60EE810AD9
:100B30009FED7F1A60EE810AB0EE600A00F018F9AE
:100B4000B0EE409A29EE090AB0EE409ADFED790A3C
:100B5000B7EE000A00EEA80ADFED770A00EEC90A38
:100B6000DFED760A20EE200A754880ED000A6E4817
:100B700090ED000ADFED730A80EE201AB7EE000A4E
:100B800031EE000A20EE000A6D48D0ED000A80EE3A
:100B9000801A6D4880ED001A94ED000AB5EEC00A87
:100BA000F1EE10FA0DD194ED010AB5EEC00AF1EEA6
:100BB00010FA06D194ED020AB5EEC00AF1EE10FA71
:100BC00046D09FED580AB0EE408A00200190029076
:100BD0000390D4ED000A60EEA00A94ED011AD4ED62
:100BE000011A41EE210A94ED021AD4ED021A41EEE7
:100BF000210AB0EE600A00F0A9F8B0EE408A94ED48
:100C0000000A20EE080A8DED010A94ED010A20EE9B
:100C1000080A8DED020A94ED020A20EE080A8DED15
:100C2000030ADDED010AF1EE600AB0EE600AFFF79B
:100C3000FBFEF0EE409A9DED031AF0EE410A9DEDA9
:100C4000021AB0EE410AFFF7FBFEB0EE40AA07E041
:100C50009FED340AF0EE409A9FED320AB0EE40AAC2
:100C600095ED000AB5EEC00AF1EE10FA0DD195ED42
:100C7000010AB5EEC00AF1EE10FA06D195ED020AAE
:100C8000B5EEC00AF1EE10FA3CD0B0EE690A00F001
:100C90006FF8B0EE408AB0EE690AFFF7E1FEB0EE01
:100CA00040DAB0EE4A0A00F063F8F0EE40AAB0EE87
:100CB0004A0AFFF7D5FEB0EE40BA28EE2A0AD5ED73
:100CC000010A20EE200AD5ED000A0DEE200A68EE9A
:100CD0000B0A95ED021A00EE810AB0EE40CA95EDBE
:100CE000010A20EE0B0AD5ED020A0AEEE00AF0EE48
:100CF00040CAF0EE6C0AB0EE4C0AFFF7A1FEF0EE2F
:100D000040BA03E09FED070AF0EE40BAB0EE4A1A8F
:100D1000F0EE690AB0EE6B0A304614F0EBFD00BF4E
:100D2000E4E6000000000000540600205806002001
:100D300035FA8E3CC1BFAD3B9DF8C5362F7C1C41BA
:100D40005C060020506CC24A6006002010B52DEDF4
:100D5000028BB0EE408AB0EE480A14F0ABFAB7EE60
:100D6000001AC1EE000AB0EE600ABDEC028B10BDA5
:100D700010B52DED028BB0EE408AB0EE480AFFF7B9
:100D800031FBBDEC028B10BD2DE9F0412DED028B46
:100D90009AB00546B0EE408A0E46174698460020A7
:100DA0001790189019901490159016904DB146B167
:100DB0003FB1B8F1000F04D0B5EEC08AF1EE10FAE1
:100DC00005D100201AB0BDEC028BBDE8F08196ED94
:100DD000000A8DED170A96ED010A8DED180A96EDC1
:100DE000020A8DED190A97ED000A8DED140A97EDB0
:100DF000010A8DED150A97ED020A8DED160A17AA64
:100E000014A9284614F0C8FB402104A8FFF753FC9E
:100E100000200090019002900390002417A904A8DC
:100E200016F058F900BF30E004A800EB041090ED74
:100E3000000AD5ED000A20EE200A04A800EB0410F9
:100E4000D0ED010A95ED011A00EE810A04A800EB2D
:100E50000410D0ED020A95ED021A00EE810A04A8F2
:100E600000EB0410D0ED030A95ED031A00EE810AA1
:100E700020EE080AF0EE000A80EE201A684600EB29
:100E8000840080ED001A601CC4B2042CCCDB00246A
:100E900010E005EB840090ED000A684600EB84004A
:100EA000D0ED000A30EE200A05EB840080ED000A48
:100EB000601CC4B2042CECDB284615F017FF01209F
:100EC00080E700BFFEE70000F8B507460C46154670
:100ED0001E4640F2FF100D49086000208860C8607F
:100EE00008200861380A0A4908704F70200A887083
:100EF000CC70280A08714D71300A8871CE716B462A
:100F00000A460249034801F0B9FBF8BD9C350020B0
:100F10009A02002048090020F8B507460C461546FD
:100F20001E464FF400700D49086000208860C860BC
:100F300008200861380A0A4908704F70200A887032
:100F4000CC70280A08714D71300A8871CE716B46D9
:100F50000A460249034801F091FBF8BD84350020A0
:100F6000920200204809002010B5024801F053FD0C
:100F700010BD000048090020F8B507460C4615468C
:100F80001E4640F2FF100D49086000208860C860CE
:100F900008200861380A0A4908704F70200A8870D2
:100FA000CC70280A08714D71300A8871CE716B4679
:100FB0000A460249034801F061FBF8BDCC35002028
:100FC000AA02002070090020F8B507460C46154615
:100FD0001E464FF400700D49086000208860C8600C
:100FE00008200861380A0A4908704F70200A887082
:100FF000CC70280A08714D71300A8871CE716B4629
:101000000A460249034801F039FBF8BDB435002017
:10101000A20200207009002010B5024801F0FBFC7C
:1010200010BD00007009002038B504464FF404706C
:101030000849086000208860C86008200861201204
:10104000054908704C706B460A460249034801F096
:1010500015FB38BDFC350020BA02002048090020ED
:1010600008B54FF4E0600C49086000208860C86053
:101070000820086100200949087048708870C8700D
:10108000087148718871C8716B460A460249044864
:1010900001F0F4FA08BD0000E4350020B20200209F
:1010A0004809002004284FF00000704700207047D6
:1010B00010B500220449054808F0AAFC0449034879
:1010C00008F098FC002010BD681C0020280F0020AC
:1010D0006814002070B505460C4629460948226868
:1010E000FFF750FA084A2168116006480AF0B8FA7A
:1010F0002946064808F07EFC044808F04BFC002016
:1011000070BD00000414002098000020280F00206B
:101110000020704710B50A460849D1F8BC12D1F832
:101120001412002901D0012010BD0146034808F027
:101130006FFCBDE81040014808F002BD280F0020F8
:101140002DE9FF5F054616461F46DDF84CB0DDE988
:10115000108ADDF838902C46002004E00199095CE3
:101160002154411CC8B20328F8DB14F8030F66F3BE
:1011700002002070207820F038003830207020885D
:1011800067F389102080607869F385006070B4F897
:1011900001100F9860F38E11A4F80110608868F3B5
:1011A000CF106080A0886AF30900A080B4F8051011
:1011B000129860F38C01A4F80510E0886BF34F10CF
:1011C000E08020896FF3090020810021B4F8090034
:1011D00061F38C00A4F80900608961F34F1060810D
:1011E000E41E1322064905F10F00FFF7CBF9424632
:1011F00005F10F001499FFF7C5F9BDE8FF9F000046
:10120000F601002010B5024801F092FF10BD000069
:10121000800E002010B5FE48C06C0068FD49884271
:1012200076D9FC4854380068F949C96C0968FA4A0B
:10123000914201D1202169E0F549C96C0968F54A5C
:10124000483A914201D1202160E0F149C96C096816
:10125000F14A6032914201D1202157E0EC49C96C3A
:101260000968EC4A1832914201D120214EE0E84948
:10127000C96C0968E84A1832914201D1C91445E0A5
:10128000E349C96C0968E34A303A914201D1C91473
:101290003CE0DF49C96C0968DF4A7832914201D1EC
:1012A000C91433E0DA49C96C0968DA4A303291422C
:1012B00001D1C9142AE0D649C96C0968D64A30322E
:1012C000914202D14FF4001120E0D149C96C096864
:1012D000D04A183A914202D14FF4001116E0CC499D
:1012E000C96C0968CC4A9032914202D14FF4001186
:1012F0000CE0C749C96C0968C64A4832914203D11B
:101300004FF4001102E003E04FF00061084070E18B
:10131000BF48C06C0068C049A831884276D9BD4832
:1013200058380068BA49C96C0968BB4A914201D172
:10133000202169E0B649C96C0968B64A483A914229
:1013400001D1202160E0B249C96C0968B24A60321B
:10135000914201D1202157E0AD49C96C0968AD4ADD
:101360001832914201D120214EE0A949C96C096887
:10137000A94A1832914201D1C91445E0A449C96C67
:101380000968A44A303A914201D1C9143CE0A0490D
:10139000C96C0968A04A7832914201D1C91433E07E
:1013A0009B49C96C09689B4A3032914201D1C914EA
:1013B0002AE09749C96C0968974A3032914202D1B4
:1013C0004FF4001120E09249C96C0968914A183A1B
:1013D000914202D14FF4001116E08D49C96C0968A1
:1013E0008D4A9032914202D14FF400110CE08849AD
:1013F000C96C0968874A4832914203D14FF4001101
:1014000002E003E04FF000610840F2E08048C06C69
:10141000006881494831884276D97F481038406851
:101420007B49C96C09687C4A914201D1202169E05D
:101430007749C96C0968774A483A914201D120211D
:1014400060E07349C96C0968734A6032914201D106
:10145000202157E06E49C96C09686E4A18329142E2
:1014600001D120214EE06A49C96C09686A4A1832E4
:10147000914201D1C91445E06549C96C0968654AC2
:10148000303A914201D1C9143CE06149C96C096804
:10149000614A7832914201D1C91433E05C49C96C88
:1014A00009685C4A3032914201D1C9142AE0584996
:1014B000C96C0968584A3032914202D14FF4001188
:1014C00020E05349C96C0968524A183A914202D146
:1014D0004FF4001116E04E49C96C09684E4A90322B
:1014E000914202D14FF400110CE04949C96C0968DE
:1014F000484A4832914203D14FF4001102E003E020
:101500004FF00061084074E04348103800684049DB
:10151000C96C0968404A914201D1202168E03C49E8
:10152000C96C09683B4A483A914201D120215FE0E9
:101530003749C96C0968384A6032914201D120218B
:1015400056E03349C96C0968324A1832914201D1D8
:1015500020214DE02E49C96C09682F4A183291426A
:1015600001D1C91444E02A49C96C0968294A303AB2
:10157000914201D1C9143BE02549C96C0968264A4A
:101580007832914201D1C91432E02149C96C09680D
:10159000204A3032914201D1C91429E01C49C96C5A
:1015A00009681D4A3032914202D14FF400111FE008
:1015B0001749C96C0968174A183A914202D14FF489
:1015C000001115E01249C96C0968134A9032914222
:1015D00002D14FF400110BE00D49C96C09680D4AA6
:1015E0004832914202D14FF4001101E04FF0006106
:1015F000084000286FD00648C06C00680549884242
:101600007BD90348C06C00680349884208D105E0D3
:10161000600A00205864024010600240202068E008
:10162000FE48C06C0068FE49884201D1202060E07D
:10163000FA48C06C0068FB49884201D1202058E07C
:10164000F648C06C0068F6496031884201D120201C
:101650004FE0F248C06C0068F2494839884201D135
:10166000C01446E0ED48C06C0068ED49183188426E
:1016700001D1C0143DE0E948C06C0068E949183167
:10168000884201D1C01434E0E448C06C0068E449E9
:101690007831884201D1C0142BE0E048C06C00686A
:1016A000E0493039884202D14FF4001021E0DB4894
:1016B000C06C0068DA493031884202D14FF4001022
:1016C00017E0D648C06C0068D6493031884204D152
:1016D0004FF400100DE0DFE10FE0D048C06C00686F
:1016E000CF499031884202D14FF4001001E04FF011
:1016F0000060CB49091F08606AE1C848C06C0068F7
:10170000C8494831884274D9C448C06C0068C5498A
:101710006039884201D1202066E0C048C06C006872
:10172000BF49884201D120205EE0BC48C06C0068FF
:10173000BC49884201D1202056E0B848C06C0068FE
:10174000B7496031884201D120204DE0B348C06CD8
:101750000068B4494839884201D1C01444E0AF4818
:10176000C06C0068AE491831884201D1C0143BE01A
:10177000AA48C06C0068AB491831884201D1C01436
:1017800032E0A648C06C0068A5497831884201D192
:10179000C01429E0A148C06C0068A24930398842D1
:1017A00002D14FF400101FE09C48C06C00689C49B7
:1017B0003031884202D14FF4001015E09748C06CD8
:1017C000006898493031884202D14FF400100BE094
:1017D0009248C06C006892499031884202D14FF41F
:1017E000001001E04FF000608D4908390860EFE01B
:1017F000FFE78A48C06C00688A491839884274D962
:101800008648C06C006887496039884201D1202031
:1018100066E08248C06C00688149884201D120207E
:101820005EE07E48C06C00687E49884201D120207D
:1018300056E07A48C06C006879496031884201D12D
:1018400020204DE07548C06C0068764948398842D0
:1018500001D1C01444E07148C06C0068704918316F
:10186000884201D1C0143BE06C48C06C00686D49EF
:101870001831884201D1C01432E06848C06C006859
:1018800067497831884201D1C01429E06348C06CAF
:10189000006864493039884202D14FF400101FE0DB
:1018A0005E48C06C00685E493031884202D14FF416
:1018B000001015E05948C06C00685A493031884220
:1018C00002D14FF400100BE05448C06C006854493A
:1018D0009031884202D14FF4001001E04FF00060D7
:1018E00050497039C86073E0FFE74C48C06C00682D
:1018F0004C496039884201D1202066E04748C06CDD
:1019000000684749884201D120205EE04348C06C0E
:1019100000684449884201D1202056E03F48C06C0D
:1019200000683F496031884201D120204DE03B48AA
:10193000C06C00683B494839884201D1C01444E07A
:101940003648C06C006836491831884201D1C0144D
:101950003BE03248C06C006832491831884201D1FE
:10196000C01432E02D48C06C00682D49783188429F
:1019700001D1C01429E02948C06C006829493039D8
:10198000884202D14FF400101FE02448C06C006868
:1019900023493031884202D14FF4001015E01F482E
:1019A000C06C00681F493031884202D14FF40010EA
:1019B0000BE01A48C06C006819499031884202D186
:1019C0004FF4001001E04FF0006016497039886054
:1019D0001548007800F0020078B11348007820F034
:1019E0000200114908700846007840F004000870B1
:1019F000012211460D4801F083FF0D48007800F0E8
:101A00000200E0B10A48007820F00200084908709E
:101A10000846007840F0040008700BE0600A0020DF
:101A20001064024070600240050300200004024080
:101A30000603002001221021184801F061FF184818
:101A4000007800F0020078B11548007820F002001C
:101A5000134908700846007840F00400087001221D
:101A600010210E4801F04CFF0DF0FCFC0D480078F1
:101A700000F0040080B10B48007820F00400094910
:101A800008700846007840F00800087006480068B2
:101A900040F001000449086010BD00000000024051
:101AA0000703002005030020103C014010B5024848
:101AB00001F03EFB10BD0000700B002010B5024885
:101AC00001F036FB10BD0000C00D002010B502482B
:101AD00001F02EFB10BD0000200E002001680A4B13
:101AE000CAB2103AA3FB02321209084B9B5CC365D1
:101AF000032A04D96FF30901091D816502E06FF320
:101B000009018165806D7047ABAAAAAAE49C01080F
:101B1000014600208A6A8B69002B0FD0B3F5005F65
:101B20001DD08AB3012A30D0022A2ED0032A04D134
:101B3000C96A11F0807F00D0012070471AB1012AD4
:101B400007D0022AF9D1C96A11F0807FF5D00120AF
:101B50007047C96AB1F1C07FFAD1012070475AB10C
:101B6000012A0BD0022A07D0032AF7D1C96AB1F1A2
:101B7000C07FF3D10120704701207047C96A11F07E
:101B8000807FFAD001207047FFE70120704710B432
:101B9000D0F800C0DCF8004024F48024CCF80040E9
:101BA000D0F800C0CCF804308368402B05D003681F
:101BB00099600068C26010BC704703689A60006852
:101BC000C16010BC70477047734890F84A000A28FB
:101BD00071DA01207049A1F8A00002216E48A0F836
:101BE000A2100321A0F8A4100421A0F8A61005213A
:101BF000A0F8A8100621A0F8AA100721A0F8AC10A0
:101C000040F20111A0F8AE10491CA0F8B010491C18
:101C1000A0F8B210491CA0F8B410491CA0F8B610E6
:101C2000491CA0F8B81090F84A00012806D15A487B
:101C3000B0F8AE005849A1F8BA00ACE0564890F8A8
:101C40004A00022806D15448B0F8B0005249A1F821
:101C5000BA00A0E0504890F84A00032806D14E4848
:101C6000B0F8B2004C49A1F8BA0094E04A4890F8A4
:101C70004A00042806D14848B0F8B4004649A1F803
:101C8000BA0088E0444890F84A00052806D1424846
:101C9000B0F8B6004049A1F8BA007CE03E4890F8A0
:101CA0004A00062877D13C48B0F8B8003A49A1F874
:101CB000BA0070E0FFE765203749A1F8A00066216F
:101CC0003548A0F8A2106721A0F8A4106821A0F858
:101CD000A6106921A0F8A8106A21A0F8AA106B210B
:101CE000A0F8AC1040F26511A0F8AE10491CA0F8A5
:101CF000B010491CA0F8B210491CA0F8B410491C3F
:101D0000A0F8B610491CA0F8B81090F84A00652851
:101D100006D12148B0F8AE001F49A1F8BA003AE058
:101D20001D4890F84A00662806D11B48B0F8B0005C
:101D30001949A1F8BA002EE0174890F84A00672820
:101D400006D11548B0F8B2001349A1F8BA0022E054
:101D5000114890F84A00682806D10F48B0F8B4003E
:101D60000D49A1F8BA0016E00B4890F84A0069281E
:101D700006D10948B0F8B6000749A1F8BA000AE050
:101D8000054890F84A006A2805D10348B0F8B80021
:101D90000149A1F8BA007047B02E002010B501200B
:101DA00001F08CFC10BD10B5082001F087FC10BDBF
:101DB00010B5102001F082FC10BD10B5202001F0FC
:101DC0007DFC10BD72B600BFFEE7000000220029B6
:101DD00005D001291AD002291BD04FF440720E49B8
:101DE0000B6823F440730B600B681A430A600A689F
:101DF00022F0F8020A600A68022343EAC000104396
:101E00000860086840F48030086070474FF48072C2
:101E1000E5E74FF40072E2E7103C02401448016825
:101E200011F4007F0FD0016821F400710160016896
:101E300041F400610160016821F400610160016802
:101E400041F400710160016811F4806F0FD00168E6
:101E500021F480610160016841F4805101600168F2
:101E600021F480510160016841F480610160704794
:101E7000003C024008490A6822F440720A600A687D
:101E800042F004020A600A684FF4803343EA0020FB
:101E90001043086070470000103C0240064A136877
:101EA00023F44073136013681360136843F0010355
:101EB0001360017070470000103C02400B49D1F8DC
:101EC00000C02CF4407CC1F800C0D1F800C04CF434
:101ED000407CC1F800C0D1F800C04CF0010CC1F842
:101EE00000C00260BFF36F8F43607047103C024038
:101EF000074A136823F440731360136843F4807334
:101F00001360136843F00103136001807047000001
:101F1000103C0240074A136823F4407313601368AF
:101F200043F400731360136843F00103136001600E
:101F300070470000103C02401A49086810F0100F6A
:101F4000194805D0C26942F01002C26110220A602D
:101F50000A6812F0200F05D0C26942F00802C2617F
:101F600020220A600A6812F0400F05D0C26942F0D0
:101F70000402C26140220A600A6812F0800F05D094
:101F8000C26942F00202C26180220A600A6812F04D
:101F9000020F05D0C26942F02002C261022008602F
:101FA000704700000C3C02407852002070B5044697
:101FB00014490020C86101F0ABFC0646124D2868A8
:101FC00010F4803F0ED0B4F1FF3F07D024B101F0F0
:101FD0009FFC801BA04201D9032070BD286810F42B
:101FE000803FF0D1286810F0010F01D00120286057
:101FF000286810F0F20F03D0FFF79EFF012070BD9C
:10200000002070BD785200200C3C02402DE9F04FBA
:10201000DDE90F9E09AC94E8F010DDF838804FF050
:10202000000A07E011F80AB000F80AB00AF1010B43
:102030000BF0FF0ABAF1030FF4DB90F803A062F390
:10204000020A80F803A090F803A063F3C50A80F8A1
:1020500003A0B0F803A064F3891AA0F803A090F8D5
:1020600004A065F3850A80F804A0B0F804A066F324
:102070008E1AA0F804A0B0F805A067F3CF1AA0F854
:1020800005A0B0F807A06CF3090AA0F807A0B0F803
:1020900008A068F38C0AA0F808A0B0F809A069F3BA
:1020A0004F1AA0F809A0B0F80BA06EF3090AA0F827
:1020B0000BA0B0F80CB0DDF844A06AF38C0BA0F8CC
:1020C0000CB0B0F80DB0DDF848A06AF34F1BA0F8D3
:1020D0000DB0BDE8F08F00002DE9F04F8946DDE935
:1020E0000E8E09AC94E8F0104FF0000A07E019F8E2
:1020F0000AB000F80AB00AF1010B0BF0FF0ABAF1BE
:10210000030FF4DB90F803A062F3020A80F803A047
:1021100090F803A063F3C50A80F803A0B0F803A009
:1021200064F3891AA0F803A090F804A065F3850A67
:1021300080F804A0B0F804A066F38E1AA0F804A0FA
:10214000B0F805A067F3CF1AA0F805A0B0F807A073
:102150006CF3090AA0F807A0B0F808A068F38C0A8D
:10216000A0F808A0B0F809A06EF34F1AA0F809A0D3
:10217000DFED0F0A60EE200AFDEEE00A10EE901A85
:10218000B0F80BA061F3090AA0F80BA04FEA912B5D
:10219000B0F80CA06BF38C0AA0F80CA04FEA515BCE
:1021A000B0F80DA06BF34F1AA0F80DA0BDE8F08FAA
:1021B00000007A4470B50B480168001D0568001DD9
:1021C0000068084400280CD0074C0822A11C05F028
:1021D00017FB04F112012846BDE87040042205F007
:1021E0000FBB70BD107AFF1F6800002038B44FF09D
:1021F000000CCDF800C090F83C20012A1BD0012231
:1022000080F83C200A680724092A17D90368DD688A
:102210000A3A02EB420204FA02F225EA0202DA600A
:102220000A788B680A3A02EB420293400268D4684B
:102230002343D36014E038BC0220704703681D6953
:1022400002EB420204FA02F225EA02021A610A785B
:102250008B6802EB420293400268146923431361C6
:102260004A681F24072A15D203685D6B521E02EBD1
:10227000820204FA02F225EA02025A630A8893B241
:102280000A79521E02EB820293400268546B234388
:1022900053632CE00D2A15D203681D6BD21F02EB8D
:1022A000820204FA02F225EA02021A630A8893B251
:1022B0000A79D21F02EB820293400268146B234317
:1022C000136314E00368DD6A0D3A02EB820204FA3C
:1022D00002F225EA0202DA620A8893B20A790D3A1A
:1022E00002EB820293400268D46A2343D362184A05
:1022F000184B04689C4206D10C68122C03D1546818
:1023000044F48004546004689C421CD10B68102B78
:1023100001D0112B17D1536843F4000353600968AF
:10232000102910D10C490D4A0968B1FBF2F101EBFB
:10233000810149000091009929B10099491E00913D
:1023400000990029F9D180F83CC038BC00207047C2
:1023500000230140002001405805002040420F00AA
:102360000068C06C704770B504460025002C03D08F
:10237000206C002610B107E0012070BD204600F05F
:102380001DF8666484F83C60206C10F0100F04D0D7
:10239000012584F83C60284670BD206C20F48850EC
:1023A00040F0020020642046FEF7A6FA6664206C26
:1023B00020F0020040F001002064EAE710B586B08A
:1023C0000446142101A8FEF776F9234920688842C3
:1023D0000FD100BF002000902048006840F48070BA
:1023E0001E4908600846006800F48070009000BF35
:1023F0002FE01B49206888422BD100BF00200090AD
:102400001648006840F48060144908600846006877
:1024100000F48060009000BF00BF00BF002000906B
:102420000E481438006840F020000C491439086048
:102430000846006800F02000009000BF00BF0815AB
:102440000190032002900020039001A9054801F0AB
:1024500041F906B010BD00000020014044380240A0
:1024600000220140001402402DE9F04104460D46CF
:10247000206881684FF0000711F4806F0CD08068ED
:1024800010F4807F08D0206C40F02000206484F895
:102490003C700120BDE8F08101F03AFA0646206860
:1024A000006810F0020F12D1B5F1FF3F0AD025B13C
:1024B00001F02EFA801BA84204D92068006810F0B1
:1024C000020F12D02068006810F0020FECD02168D3
:1024D0006FF012000860206C40F4007020642068E7
:1024E000816811F0405F09D01EE0206C40F00400CC
:1024F000206484F83C700320BDE8F081217E99B906
:10250000C16A11F4700F03D0806810F4806F0BD192
:10251000206C20F480702064206C10F4805F03D164
:10252000206C40F0010020640020BDE8F081000034
:1025300081B00022009290F83C10012908D00121BE
:1025400080F83C1001688B6813F0010F03D016E08F
:10255000022001B070478B6843F001038B6039495A
:10256000394B0968B1FBF3F101EB4101009100998E
:1025700029B10099491E009100990029F9D10168FB
:102580008B6813F0010F52D0036C23F0010323F486
:10259000C06343F4807303644B6813F4806F05D009
:1025A000036C23F4005343F480530364036C13F46B
:1025B000805F04D0436C23F00603436400E0426470
:1025C00080F83C20214A6FF022030B60516811F023
:1025D0001F0F1F4907D00068884230D1816811F071
:1025E000405F1FD02BE00068884212D0194A904209
:1025F00004D1D1F8042312F01F0F0AD0A0F18042B9
:10260000B2F591321BD1D1F8041301F01F0110294A
:1026100015D2816811F0405F11D1816841F080418D
:1026200081600CE0816841F08041816007E0016CCD
:1026300041F010010164416C41F00101416400204E
:1026400001B070475805002040420F0000230140B0
:10265000002001400021014090F82020012A07D0ED
:10266000022A05D0416A41F480214162012070476D
:1026700000684269114341610020704770B490F8CE
:102680002040D0F800C0DCF808C0012C08D0022C93
:1026900006D0416A41F48021416270BC012070473C
:1026A0000CF080640CF000652C4302D11CF0805FBC
:1026B0005FD0CCF3016CBCF1020F06D9416A41F442
:1026C0000001416270BC01207047012404FA0CF43F
:1026D0001C608B684FF4C0749BB1CD6804EB0C1682
:1026E0002B434D6843EAC5030568AB514FF4C273F1
:1026F000066803EB0C130D69F550097D012909D01B
:102700000DE00D88CB6804EB0C1643EA45530568D1
:10271000AB51EBE70168CD5845F48075CD50117988
:10272000D379557941EA036193791B0443EA052380
:1027300019434FF4C675036805EB0C155951117810
:10274000D37841EA0361937852781B0443EA02226A
:1027500011434FF4C473026803EB0C13D1500168AA
:1027600004EB0C100A5842F001020A5070BC002021
:102770007047416A41F40011416270BC012070470A
:1027800090F82020012A07D0022A05D0416A41F49E
:1027900080214162012070474248D0F8002242F077
:1027A0000102C0F80022D0F8002222F47C52C0F8C6
:1027B0000022D0F800224B6A42EA0322C0F800222D
:1027C0000A7D012302F01F0203FA02F2D0F81C3244
:1027D0009343C0F81C32CB69D3B9D0F80C32934381
:1027E000C0F80C32B1F80CC04B686CF31F43D1F841
:1027F00014C000EBCC0CCCF84032B1F808C00B6828
:102800006CF31F43D1F814C000EBCC0CCCF844326D
:10281000CB69012B1AD1D0F80C321343C0F80C321B
:10282000B1F800C04B686CF31F43D1F814C000EB43
:10283000CC0CCCF84032B1F808C0CB686CF31F4325
:10284000D1F814C000EBCC0CCCF844328B697BB1CE
:10285000D0F804321343C0F804320B6973B1D0F8D6
:1028600014321343C0F81432096A01290CD010E065
:10287000D0F804329343C0F80432EEE7D0F81432B3
:102880009343C0F81432EFE7D0F81C121143C0F89C
:102890001C12D0F8001221F00101C0F80012002033
:1028A0007047000000640040704710B490F820C0EA
:1028B000BCF1010F09D0BCF1020F06D0416A41F40E
:1028C0008021416210BC0120704739B1D0F800C0AE
:1028D000DCF810C01CF0030F7DD006E0D0F800C07B
:1028E000DCF80CC01CF0030F7BD04FF4D87C0468DC
:1028F0000CEB011C54F80C4004F004049460002C10
:102900007DD0046854F80C40E4085460046854F81E
:102910000CC00CF0020CC2F80CC04FF4DA7C046856
:102920000CEB011C54F80C4004F00F041461046813
:1029300054F80C40C4F307249461046854F80CC0A4
:102940004FEA1C4CC2F814C04FF4DC72D0F800C03F
:1029500002EB01125CF802C083F800C0D0F800C09E
:102960005CF802C04FEA1C2C83F801C0D0F800C00C
:102970005CF802C04FEA1C4C83F802C0D0F800C0DB
:102980005CF80220120EDA704FF4DE72D0F800C04C
:1029900002EB01125CF802C083F804C0D0F800C05A
:1029A0005CF802C04FEA1C2C83F805C0D0F800C0C8
:1029B0005CF802C04FEA1C4C83F806C0D0F800C097
:1029C0005CF80220120EDA71F9B10068016941F079
:1029D0002001016102E00BE003E010E010BC0020E8
:1029E0007047416A41F40011416210BC01207047F8
:1029F000416A41F40011416210BC01207047046833
:102A000054F80C40640D146080E70068C16841F020
:102A10002001C160DEE72DE9F05F0546002428684B
:102A20004669D0F804908768D0F80CA0D0F810B0B0
:102A3000D0F8188016F0010F54D017F0010F17D0FE
:102A40000121816017F0020F03D0284600F06AFBD5
:102A50000EE017F0040F02D04FF4006408E017F006
:102A6000080F02D04FF4805402E0284600F059FBD2
:102A700017F4807F19D029684FF48070886017F4AC
:102A8000007F03D0284600F04FFB0EE017F4806F64
:102A900002D044F4005408E017F4006F02D044F46C
:102AA000804402E0284600F03EFB17F4803F19D036
:102AB00029684FF48030886017F4003F03D028461F
:102AC00000F034FB0EE017F4802F02D044F40044F1
:102AD00008E017F4002F02D044F4803402E02846C6
:102AE00000F023FB16F0080F07D01AF0100F04D0E7
:102AF00044F4007429681020C86016F0040F4FF0E9
:102B0000080707D01AF0080F04D02868C7602846C5
:102B100000F000FA16F0020F07D02868C06810F025
:102B2000030F02D0284600F0F7F916F0400F07D047
:102B30001BF0100F04D044F4806429681020086151
:102B400016F0200F07D01BF0080F04D0286807618B
:102B5000284600F0B1FA16F0100F07D02868006977
:102B600010F0030F02D0284600F0A7FA16F4003F39
:102B700008D019F0100F05D02968102048602846A9
:102B800000F09CFA16F4803F07D019F0080F04D02B
:102B900028684760284600F0CAFA16F4004F4AD069
:102BA00019F0040F44D016F4807F04D018F0010F00
:102BB00001D044F0010416F4007F04D018F0020F95
:102BC00001D044F0020416F4806F04D018F0040F12
:102BD00001D044F0040416F4006F29D018F0700FEF
:102BE00026D008F07000402815D006DC102809D047
:102BF00020280AD0302816D10AE050280ED06028AC
:102C000011D10EE044F008040DE044F010040AE095
:102C100044F0200407E044F0400404E044F0800461
:102C200001E044F480742868816921F070018161B9
:102C3000296804204860002C05D0686A2043686237
:102C40002846FFF731FEBDE8F09F70B50446002C22
:102C500003D094F8200010B104E0012070BD20469C
:102C600000F0A8F82068016841F00101016000F05F
:102C70004FFE0546206840684FF0050610F0010F32
:102C800011D100F045FE401B0A2807D9606A40F4C4
:102C90000030606284F82060012070BD20684068C8
:102CA00010F0010FEDD02068016821F002010160F1
:102CB00000F02EFE05462068406810F0020F11D08B
:102CC00000F026FE401B0A2807D9606A40F4003055
:102CD000606284F82060012070BD2068406810F0B8
:102CE000020FEDD1207E01283FD02068016821F03D
:102CF00080010160607E01283DD02068016821F0DC
:102D000040010160A07E01283BD02068016821F0CD
:102D100020010160E07E012839D02068016841F07F
:102D200010010160207F012837D02068016821F060
:102D300008010160607F012835D02068016821F01A
:102D400004010160E168A0686269084321691143D8
:102D500008436168491E08432168C8610020606219
:102D6000012084F82000002070BD2068016841F037
:102D700080010160BEE72068016841F04001016008
:102D8000C0E72068016841F020010160C2E72068C7
:102D9000016821F010010160C4E72068016841F07A
:102DA00008010160C6E72068016841F00401016084
:102DB000C8E7000010B586B00446142101A8FDF74D
:102DC0007AFC4E492068884241D14D480068401C39
:102DD0004B4908600846006801280FD100BF002059
:102DE00000904848006840F0007046490860084676
:102DF000006800F00070009000BF00BF00BF00201E
:102E0000009040481038006840F008003D491039F3
:102E100008600846006800F00800009000BF00BF8E
:102E200003200190022002900020039003200490D0
:102E30000920059001A9344800F04CFC002206212D
:102E4000142001F09BFB142001F08AFB54E02F4971
:102E50002068884250D100BF0020009029480068B7
:102E600040F08060274908600846006800F08060F4
:102E7000009000BF00BF22480068401C2049086045
:102E80000846006801280FD100BF002000901D48AF
:102E9000006840F000701B4908600846006800F0B8
:102EA0000070009000BF00BF00BF002000901548D8
:102EB0001038006840F002001249103908600846D6
:102EC000006800F00200009000BF00BF6020019089
:102ED0000220029000200390032004900920059016
:102EE00001A90B4800F0F6FB00220521402001F06B
:102EF00045FB402001F034FB06B010BD00640040EB
:102F00003000002040380240000C024000680040C1
:102F1000000402407047000010B58CB00446012048
:102F200012F03AFF6049206888427DD103AB05AAC0
:102F300000212046FFF7B9FC40F201620598811A92
:102F4000904278D015DCB0F5017F26D007DCA0F2E6
:102F5000012060B3012825D0022877D118E0A0F223
:102F6000052048B30C282CD0A0F2FB3000286DD1EE
:102F700060E0102963D006DC01295DD002295CD015
:102F80000F2963D15AE011295AD012295ED158E095
:102F900003A9022013F082F959E003A9032013F0DA
:102FA0007DF954E003A9012013F078F94FE003A95B
:102FB000002013F073F94AE003A9042013F06EF91E
:102FC00045E003A8018800EE101AB8EE400ADFEDD4
:102FD000370A80EE201A364981ED001A418800EE4A
:102FE000101AB8EE400ADFED310A80EE201A30499F
:102FF00081ED011A818800EE101AB8EE400ADFED6B
:103000002B0A80EE201A2A4981ED021AC18800EEAF
:10301000101AB8EE400ADFED250A80EE201ABCEE49
:10302000C10A10EE101A02E012E004E00EE0204A9D
:1030300091810CE000BF00BF00BF00BF00BF00BF18
:1030400000BF03A905A813F031FB00E000BF00BFDB
:1030500018492068884225D101AB05AA00212046E5
:10306000FFF723FC0598A0F2012030B1012809D018
:1030700002280CD0062814D10EE001A9052013F077
:103080000DF90EE001A9062013F008F909E001A9E5
:10309000072013F003F904E001A9082013F0FEF85B
:1030A00000BF00BF0CB010BD006400400000C8426B
:1030B000143600200068004070477047704770B5B4
:1030C000044694F82000012805D0606A40F40020EE
:1030D0006062012070BD022084F820002068016831
:1030E00021F00101016000F013FC054620684068F2
:1030F00010F0010F12D000F00BFC401B0A2808D979
:10310000606A40F400306062052084F820000120ED
:1031100070BD2068406810F0010FECD100206062A3
:1031200070BD704770477047704770477047704771
:103130002DE9F84304464FF00008CDF800807648AA
:103140004FF416510068B0FBF1F7A56D2E6894F8A6
:103150005C00082101FA00F0304211D020680268BA
:1031600012F0040F0CD0026822F00402026094F8FE
:103170005C0001FA00F0A860606D40F0010060653D
:1031800094F85C004FF0010909FA00F0304209D0D0
:103190002168496911F0800F04D0A860606D40F08B
:1031A0000200606594F85C1004208840304209D029
:1031B0002168096811F0020F04D0A860606D40F02A
:1031C0000400606594F85C1010208840304224D0E0
:1031D0002168096811F0080F1FD0A86020680168F5
:1031E00011F4802F0DD0006810F4002F04D0A16CD2
:1031F00099B12046884710E0216C71B1204688477C
:103200000BE0016811F4807F03D1016821F008010F
:103210000160216C09B12046884794F85C10202099
:103220008840304251D02168096811F0100F4CD00D
:10323000A86094F8350005280DD02068016811F4C5
:10324000802F32D0006810F4002F29D0E16B59B3E1
:103250002046884739E02068016821F016010160A6
:103260002068416921F080014161206C08B9A06C9F
:1032700020B12068016821F00801016094F85C0029
:103280003F2101FA00F0A86084F8359084F834807A
:10329000216D00293ED001B02046BDE8F04308472B
:1032A000616C09B1204688470FE0016811F4807F06
:1032B00007D1016821F01001016084F8359084F88D
:1032C0003480E16B09B120468847606D002821D029
:1032D000606D10F0010F15D0052084F835002068CE
:1032E000016821F0010101600098401C0090B84283
:1032F00004D82068006810F0010FF5D184F83590EB
:1033000084F83480E16C002904D001B02046BDE887
:10331000F0430847BDE8F883580500202DE9F04147
:10332000044600F0F5FA0546DCB1022084F83500C9
:10333000002684F834602068016821F001010160F2
:103340002068006810F0010F13D000F0E1FA401B74
:10335000052809D920206065032084F83500BDE8E0
:10336000F0810120BDE8F0812068006810F0010FB5
:10337000EBD121680868234A1040A3686268D4F83A
:1033800010C01A43E36843EA0C031A4363691A4303
:10339000A3691A43E3691A43236A1A431043626A12
:1033A000042A03D1236BE26A1A43104308602068A1
:1033B000406920F00701606A40EA010501270428FE
:1033C0000ED1A06A0543E06A50B12046FEF7A0FB8B
:1033D00030B14020606584F835700120BDE8F0818F
:1033E000206845612046FEF779FB94F85C103F2287
:1033F00002FA01F18160666584F835700020BDE84D
:10340000F08100003F8010F070B504460025A66DE5
:1034100094F8340001280DD0012084F8340094F889
:1034200035C00020BCF1010F06D084F8340002251D
:10343000284670BD022070BD4FF0020C84F835C0E4
:1034400060652046FEF7A3FB94F85C003F2101FA7B
:1034500000F0B0602068016841F016010160206C46
:1034600020B12068016841F008010160206801680E
:1034700041F001010160DBE770B5044600F048FA55
:103480000546B4F1FF3F02D004480078044400F040
:103490003FFA401BA042FAD370BD00004C0500204B
:1034A0002DE9F04104460F46DFF8988098F818009F
:1034B00001280AD0012088F818004CF25030FEF79D
:1034C00075FD0246100003D035E00220BDE8F08112
:1034D0004FF0FF30386020681B4E012815D0A568DA
:1034E000E0682844A84224D9217C2846FEF76EFCD7
:1034F0004CF25030FEF75AFD0246306820F0FA00D8
:10350000306010000FD03D6013E0207C6168FEF752
:10351000B1FC4CF25030FEF749FD0246306820F015
:103520000400306005E06D1CA168E0680844A84212
:10353000DAD8FEF773FC002088F818001046BDE8C2
:10354000F081000078520020103C024003480168DE
:1035500041F000410160002070470000103C024033
:103560002DE9F0410646884614461D461A4F387E1E
:10357000012807D0012038764CF25030FEF716FDB6
:1035800018B115E00220BDE8F081AEB1012E18D0CF
:10359000022E1BD022462B464046FEF78FFC4CF2F3
:1035A0005030FEF703FD0D490A6822F001020A605F
:1035B00000213976BDE8F081E1B24046FEF76EFCAD
:1035C000EDE7A1B24046FEF793FCE8E7214640460E
:1035D000FEF7A0FCE3E7000078520020103C024018
:1035E000002008490A6812F0004F09D0074A064B2C
:1035F0001360074B1360096811F0004F00D00120E1
:1036000070470000103C024023016745043C024023
:10361000AB89EFCD10B50446102C11D11F480078AE
:1036200040F001001D4908701D48007840F001007D
:103630001B4908701B48007870B30BF013FF2BE098
:10364000202C0BD11848007840F001001649087072
:103650001448007800B30BF005FF1DE0082C06D1DC
:103660001248007840F001001049087014E0012C65
:1036700012D114F0E5F901280ED00D490D4800686B
:1036800013F050FF0A48006830B120070A4908606B
:10369000BFF34F8FBFF36F8F10BD000006030020F4
:1036A0000703002009030020050300200803002071
:1036B0007C030020E002002004ED00E010B5044986
:1036C0000A68024202D00860FFF7A4FF10BD0000A4
:1036D000143C01402DE9F84F0022DFF818A2DFF872
:1036E00010924FF0010E03274FF00F08AAF1040BC0
:1036F0000EFA02FC0B6803EA0C0363457DD10C79DA
:1037000004F00304012C01D0022C14D1856854006C
:1037100007FA04F6B543CE6806FA04F42C43846035
:10372000446824EA0C0C0C79C4F30014944044EA75
:103730000C0CC0F804C0D1F804C037EA0C0C0CD053
:10374000C4684FEA420C07FA0CF5AC438D6805FAE1
:103750000CFC4CEA040CC0F80CC091F804C00CF04E
:10376000030CBCF1020F12D14FEAD20C00EB8C0417
:10377000256A4FEA427C4FEADC6C08FA0CF6B54346
:103780000E6906FA0CFC4CEA050CC4F820C004686B
:103790004FEA420C07FA0CF5AC430D7905F003052E
:1037A00005FA0CFC4CEA040CC0F800C0D1F804C0C7
:1037B0001CF4403F7DD0D9F800C04CF4804CC9F8CF
:1037C00000C0D9F800C00CF4804CCDF800C022F045
:1037D000030C0CF1804505F59835D5F808C8940719
:1037E000240F08FA04F62CEA0606A0F1804CBCF57A
:1037F000003C64D0A0F1804C00E05AE0BCF5013CF4
:1038000060D0A0F1804CBCF5023C5ED0A0F1804CB1
:10381000BCF5033C5CD0A0F1804CBCF5043C5AD014
:10382000A0F1804CBCF5053C58D0A0F1804CBCF513
:10383000063C56D0A0F1804CBCF5073C54D04FF06C
:10384000080C0CFA04FC4CEA060CC5F808C8DAF8B7
:1038500000C02CEA030C4C6814F4801F01D04CEA21
:10386000030CCAF800C0244CD4F800C02CEA030CA6
:103870004D6815F4001F01D04CEA030CC4F800C0D9
:10388000DBF800C02CEA030C4C6814F4003F01D0B4
:103890004CEA030CCBF800C0184CD4F800C02CEA5A
:1038A000030C4D6815F4803F01D04CEA030CC4F8BA
:1038B00000C0521C102AFFF41BAFBDE8F88F4FF078
:1038C000000CBEE74FF0010CBBE74FF0020CB8E76D
:1038D0004FF0030CB5E74FF0040CB2E74FF0050CC6
:1038E000AFE74FF0060CACE74FF0070CA9E700007C
:1038F00044380240083C01400C3C0140003C01407F
:10390000002A01D08161704709048161704700007D
:1039100001488068704700004C05002070B50446DF
:10392000002C04D094F83D00002510B106E00120E1
:1039300070BD84F83C50204600F0E4FC242084F85C
:103940003D002068016821F00101016020680168E4
:1039500041F4004101602068016821F400410160E8
:1039600001F074FD544B6168994203D85349884271
:1039700003D304E05249884201D2012070BD51496D
:10398000B0FBF1F12268D2F804C02CF03F0C4CEAF5
:10399000010CC2F804C062689A4201D84A1C07E0D0
:1039A0004FF4967251434FF47A72B1FBF2F14A1C14
:1039B0002168D1F820C02CF03F0C42EA0C020A62C8
:1039C0006168994210D84900401EB0FBF1F2521CC8
:1039D000C2F30B02042A01D2042026E0B0FBF1F06E
:1039E000401CC0F30B0020E0A268002A50D001EB7D
:1039F000C10303EB0113A0F1010CBCFBF3F35B1C4F
:103A000043F480431B051B0D4AD0002A4AD001EB2A
:103A1000C10202EB0111401EB0FBF1F0401CC0F3EB
:103A20000B0040F4804040F400402168CA6922F055
:103A3000FF0222F44F421043C861216AE06901434A
:103A40002068026822F0C00211430160E168206929
:103A500001432068826822F0FF0222F403421143EE
:103A60008160A169606901432068C26822F0FF0299
:103A70001143C1602068016841F0010101602564C3
:103A8000202084F83D00256384F83E50002070BD5E
:103A900001EB4103A0F1010CBCFBF3F35B1CB1E7AC
:103AA0000120C2E701EB4101401EB0FBF1F0401CD8
:103AB000C0F30B00B7E70000A086010080841E0061
:103AC00000093D0040420F002DE9F84F04468A46A8
:103AD00017469946DDF82880FFF71AFF054694F847
:103AE0003D00202802D00220BDE8F88F19230122D2
:103AF0009C492046009503F0DBFA10B10220BDE896
:103B0000F88F94F83C00012808D0012084F83C008C
:103B10002068016811F0010F03D006E00220BDE823
:103B2000F88F016841F0010101602068016821F40B
:103B300000610160222084F83D00102084F83E00DE
:103B4000002626646762A4F82A90608D2085864846
:103B5000E0622B4642465146204603F07DF810B104
:103B60000120BDE8F88F208D28B301282CD0022831
:103B700038D02068016841F48061016020684169A3
:103B800080690090208D002800F0E280774F208D22
:103B9000032800F2B380012833D0022848D04346DE
:103BA000002239462046009503F082FA002869D0A9
:103BB0000120BDE8F88F20684169816900910168A2
:103BC00041F400710160DDE72068016821F4806143
:103BD00001602068416981690091016841F40071C8
:103BE0000160CFE72068016821F4806101602068EE
:103BF000016841F4006101602068416980690090BA
:103C0000C0E72A464146204603F013FB10B10120CD
:103C1000BDE8F88F20680069616A0870606A401C1E
:103C20006062208D401E2085608D401E60858BE087
:103C30004346002239462046009503F039FA10B178
:103C40000120BDE8F88F2068016841F4007101602F
:103C500020680069616A0870606A401C6062218D9A
:103C6000491E2185618D491E6185216809690170A0
:103C7000606A401C6062208D401E2085608D401E61
:103C8000608561E02068016821F48061016020683E
:103C90000069616A0870606A401C6062208D401E85
:103CA0002085608D401E60854346002239462046AF
:103CB000009503F0FDF910B10120BDE8F88F2068F0
:103CC000016841F40071016020680069616A087050
:103CD000606A401C6062218D491E2185618D491EEC
:103CE0006185216809690170606A401C6062208DED
:103CF000401E2085608D401E608525E02A46414695
:103D0000204603F096FA10B10120BDE8F88F206834
:103D10000069616A0870606A401C6062218D491EFA
:103D20002185618D491E618521684A6912F0040F61
:103D30000AD009690170606A401C6062208D401ED3
:103D40002085608D401E6085208D00287FF41FAF88
:103D5000202084F83D0084F83E6084F83C60002018
:103D6000BDE8F88F020010000000FFFF0400010012
:103D70002DE9F84F04468A46904699460A9FFFF778
:103D8000C7FD064694F83D00202802D00220BDE879
:103D9000F88F192301224C492046009603F088F938
:103DA00010B10220BDE8F88F94F83C00012808D03B
:103DB000012084F83C002068016811F0010F03D055
:103DC00006E00220BDE8F88F016841F001010160C2
:103DD0002068016821F400610160212084F83D0021
:103DE000102084F83E0000252564C4F82480A4F83F
:103DF0002A90608D20853548E06233463A46514628
:103E0000204602F0BBFF10B10120BDE8F88F20680A
:103E1000416980690090208D002846D0324639469D
:103E2000204603F044FA50B1206C042804D12068E5
:103E3000016841F4007101600120BDE8F88F606AFB
:103E4000216800780861606A00F1010CC4F824C0A0
:103E5000608D401E6085208D401E80B220852268C6
:103E6000516911F0040F0CD058B19CF8000010619A
:103E7000606A401C6062608D401E6085208D401E1F
:103E8000208532463946204603F0E4F850B1206CD4
:103E9000042804D12068016841F400710160012008
:103EA000BDE8F88F208D0028B8D12068016841F462
:103EB00000710160202084F83D0084F83E5084F8B1
:103EC0003C500020BDE8F88F020010000000FFFF0A
:103ED0002DE9FF4F83B004468A469346DDF84490AF
:103EE000DDF84080129EFFF713FD054694F83D0073
:103EF000202803D007B00220BDE8F08F192301224B
:103F0000A0492046009503F0D3F818B107B002206D
:103F1000BDE8F08F94F83C00012808D0012084F817
:103F20003C002068016811F0010F04D007E007B0E1
:103F30000220BDE8F08F016841F0010101602068B6
:103F4000016821F400610160222084F83D004020D6
:103F500084F83E0000272764C4F82480A4F82A903F
:103F6000608D20858848E062019500965A4651464A
:103F70002046069B02F05CFF18B107B00120BDE8A7
:103F8000F08F208D10B3012829D0022835D0206869
:103F9000416980690290208D002800F0E880DFF8F8
:103FA000EC81208D032800F2B780012834D002284C
:103FB0004AD03346002241462046009503F078F867
:103FC00000286CD007B00120BDE8F08F206841695F
:103FD00081690291016841F400710160DBE72068AA
:103FE000016821F480610160206841698169029162
:103FF000016841F400710160CDE72068016821F497
:10400000806101602068016841F4006101602068FE
:10401000416980690290BEE72A463146204603F096
:1040200008F918B107B00120BDE8F08F20680069D9
:10403000616A0870606A401C6062208D401E2085A5
:10404000608D401E60858EE033460022414620464A
:10405000009503F02DF818B107B00120BDE8F08FEE
:104060002068016841F40071016020680069616A9C
:104070000870606A401C6062218D491E2185618D37
:10408000491E6185216809690170606A401C60628F
:10409000208D401E2085608D401E608563E0206875
:1040A000016821F48061016020680069616A08701C
:1040B000606A401C6062208D401E2085608D401E1D
:1040C00060853346002241462046009502F0F0FF0D
:1040D00018B107B00120BDE8F08F2068016841F4F5
:1040E0000071016020680069616A0870606A401CA4
:1040F0006062218D491E2185618D491E618521687F
:1041000009690170606A401C6062208D401E208534
:10411000608D401E608526E02A463146204603F029
:1041200088F818B107B00120BDE8F08F2068006959
:10413000616A0870606A401C6062218D491E218599
:10414000618D491E61852268516911F0040F0AD002
:1041500011690170606A401C6062208D401E2085DC
:10416000608D401E6085208D00287FF41AAF2020CE
:1041700084F83D0084F83E7084F83C7007B000205D
:10418000BDE8F08F020010000000FFFF04000100F6
:104190002DE9FF4F83B004468A469346DDF84490EC
:1041A000DDF84080129EFFF7B3FB054694F83D0012
:1041B000202803D007B00220BDE8F08F1923012288
:1041C0004E492046009502F073FF18B107B0022057
:1041D000BDE8F08F94F83C00012808D0012084F855
:1041E0003C002068016811F0010F04D007E007B01F
:1041F0000220BDE8F08F016841F0010101602068F4
:10420000016821F400610160212084F83D00402014
:1042100084F83E0000272764C4F82480A4F82A907C
:10422000608D20853648E062019500965A465146D9
:104230002046069B02F0A6FE18B107B00120BDE89B
:10424000F08F208D002836D02A463146204603F0D4
:104250002EF858B1206C042804D12068016841F47C
:104260000071016007B00120BDE8F08F606A21682D
:1042700000780861606A00F1010CC4F824C0208D48
:10428000401E80B22085618D491E61852368596971
:1042900011F0040F0CD058B19CF800001861606A4E
:1042A000401C6062208D401E2085608D401E608510
:1042B000208D0028C8D12A463146204602F0CAFE89
:1042C00058B1206C042804D12068016841F40071C1
:1042D000016007B00120BDE8F08F2068016841F45B
:1042E00000710160202084F83D0084F83E7084F85D
:1042F0003C7007B00020BDE8F08F00000200100005
:104300000000FFFF10B586B00446142101A8FCF799
:10431000D2F94449206888422FD100BF0020009084
:104320004148006840F020003F49086008460068A6
:1043300000F02000009000BF00BF03200190122079
:10434000029001200390032004900420059001A90D
:104350003648FFF7BFF900BF002000903248103008
:10436000006840F480003049103108600846006859
:1043700000F48000009000BF51E02D492068884281
:104380004DD100BF002000902748006840F0040095
:10439000254908600846006800F00400009000BF4E
:1043A00000BF00BF002000900846006840F00100F8
:1043B00008600846006800F00100009000BF00BFE0
:1043C00048150190122002900020039003200490D1
:1043D0000420059001A91748FFF77CF94FF480707D
:1043E00001901220029000200390032004900420EA
:1043F000059001A91048FFF76DF900BF002000905B
:1044000009481030006840F4000007491031086086
:104410000846006800F40000009000BF00BF06B02E
:1044200010BD000000580040303802400014024027
:10443000005C004000080240000002400248816821
:1044400002781144816070474C05002010B50B487C
:10445000016841F400710160016841F4806101600C
:10446000016841F480710160032000F0BBF80F2067
:1044700000F006F800F04AF8002010BD003C0240B1
:1044800070B588B00446002500260022214637205A
:1044900000F074F8372000F063F800BF00200190AE
:1044A0001648006840F0200014490860084600687B
:1044B00000F02000019000BF00BF02A903A800F097
:1044C000A1FF00F0C3FF45000D48B5FBF0F0461E0C
:1044D0000C480D49086040F2E7310B48C160466066
:1044E00000210161816001F095FD20B9064801F0CD
:1044F00075FE08B070BD0120FBE7000040380240A7
:1045000040420F0000140040E00E002008B500BF3C
:10451000002000901148006840F480400F49086076
:104520000846006800F48040009000BF00BF00BF54
:1045300000200090081F006840F08050091F0860AC
:104540000846006800F08050009000BF00BF0022C5
:104550000F21901E00F012F808BD00004438024000
:1045600000280ADB00F01F01012202FA01F14009D4
:10457000800000F1E020C0F80011704710B4184B23
:104580001B68C3F30223C3F1070CBCF1040F01D96C
:104590004FF0040C1C1D072C01D2002300E0DB1E91
:1045A000012404FA0CFCACF1010C0CEA0101994065
:1045B00004FA03F35B1E1A401143002806DB00F1E6
:1045C000E020090180F8001410BC704700F00F00D3
:1045D00000F1E020090180F8141D10BC70470000B4
:1045E0000CED00E000F00700064A11684FF6FF03EB
:1045F000194041EA002040F0FD7040F080601060FA
:10460000704700000CED00E0BFF34F8F05480168D4
:10461000054A01F4E06111430160BFF34F8F00BF11
:10462000FDE700000CED00E00400FA0570470068AB
:1046300041620020704730B40368586A00291BD0DB
:10464000D3F828C000EB1C4C00200129A1F1010186
:104650004FF4827408D004EB80055D590CEB154CC7
:10466000401CC0B28842F6D304EB81014CEA024000
:10467000585030BC0020704740EA02409862F8E78A
:10468000D0F8080505F0E0BD01EBC10200EB8202A5
:10469000D0F80805D26C05F001BD01EBC10200EBBA
:1046A0008202D0F80805D2F88C2205F065BDD0F85A
:1046B000080505F0CBBD11F0800F01F00F0101EBF3
:1046C000C10100EB810101D03C3101E001F51F7116
:1046D000006806F0D0BD70B5044611F0800F01F0FF
:1046E0000F0000EBC00104EB81014FF001024FF01D
:1046F000000502D03C314A7002E001F51F714D7097
:10470000087094F8BC04012808D084F8BC24206800
:1047100006F02CFA84F8BC54002070BD022070BD55
:1047200070B5044601F00F026068824201D9012091
:1047300070BD01F00F0000EBC00011F0800F04EB22
:1047400080004FF001034FF0000503D000F13C0161
:104750004B7002E000F51F714D708D700A7094F877
:10476000BC04012808D084F8BC34206806F012FC90
:1047700084F8BC54002070BD022070BD01F00F0110
:1047800001EBC10100EB8100D0F89C02704770B5CD
:10479000044611F0800F01F00F0000EBC00104EBA4
:1047A00081014FF0010C4FF0000503D03C3181F83E
:1047B00001C002E001F51F714D700870CA600B71F5
:1047C0004A7802B10881022B00D14D7194F8BC04E3
:1047D000012808D084F8BCC4206806F003F92846F4
:1047E00084F8BC5470BD022070BD10B50C4604F0B6
:1047F0000F0C0CEBCC0100EB810101F51F710A617C
:104800008B6100230B624B7081F800C00369012BA0
:1048100000D14A6114F00F0F05D0027C006806F049
:1048200014FC002010BD027C006806F0EBFAF8E7EB
:1048300070B504460D46616805F00F00884201D945
:10484000012070BD15F0800F4FF000064FF00102FF
:1048500006D000EBC00104EB81013C314A7006E058
:1048600005EBC50104EB810101F51F714E708A70E3
:10487000087094F8BC04012808D084F8BC2420688F
:1048800006F0B4FB15F00F0F02D007E0022070BD58
:10489000217C04F2C442206806F04CFB84F8BC641E
:1048A000002070BD10B50C4604F00F0C0CEBCC01D1
:1048B00000EB81013C310A618B6100230B62012313
:1048C0004B7081F800C00369012B00D14A6114F0DC
:1048D0000F0F05D0027C006806F0B7FB002010BD6A
:1048E000027C006806F08EFAF8E72DE9F05F0446D6
:1048F0002568284606F082FD00287ED1206806F053
:10490000A9FD002879D0D5F80808C0F30D20C4F817
:10491000FC04206806F09EFD10F0020F04D0206811
:10492000416901F002014161206806F093FD10F039
:10493000100F36D02068816921F0100181612F6A43
:1049400007F00F0000EBC00004EB800000F51F76BD
:10495000C7F34340022802D0062812D01CE047F6D5
:10496000F070074218D0C7F30A121746284631697B
:1049700006F074FD306938443061306A3844306282
:104980000AE0082204F2C441284606F067FD306AB6
:10499000C7F30A11084430622068816941F01001B0
:1049A0008161206806F056FD10F4002F4FF0100BC7
:1049B0004FF0000A4FF0010967D00026206806F08A
:1049C00028FD80465FEA08005FD018F0010F56D03E
:1049D000F1B2206806F036FD074617F0010F07D048
:1049E00005EB4610C0F8089B3146204603F016FF41
:1049F00017F0080F0AD0082000E01FE205EB46116F
:104A0000C1F8080B3146204603F0E4FE17F0100F02
:104A100003D005EB4610C0F808BB17F0020F1DD0FD
:104A2000686910F0800F05D0D5F8040840F4806163
:104A3000C5F8041806EBC60004EB800000F51F70F3
:104A4000C178012905D180F803A0F1B2204600F019
:104A500002FA05EB46110220C1F8080B17F0200FEF
:104A600004D005EB46112020C1F8080B17F4005FB5
:104A700005D005EB46114FF40050C1F8080B761C29
:104A80004FEA5808B8F1000F9FD1206806F0E2FC09
:104A900010F4802F74D0206806F0B4FC074600267E
:104AA000002F6DD04FF0020B17F0010F64D0F1B260
:104AB000206806F0B5FC804618F0010F24D006F0FF
:104AC0000F0009FA00F0D5F834188143C5F83418FE
:104AD00005EB4610C0F808992069012810D106EBB3
:104AE000C60004EB8000826CC16C1144C1643EB905
:104AF000606D28B904F2C4420121206806F01AFA58
:104B0000F1B22046FFF7C0FD18F0080F04D005EB06
:104B100046110820C1F8080918F0100F04D005EB61
:104B200046111020C1F8080918F0400F04D005EB19
:104B300046114020C1F8080918F0020F15D031467F
:104B4000284606F01FFC06EBC60004EB80003C3054
:104B5000C178012905D180F803A0F1B2204600F008
:104B600076F905EB4610C0F808B918F0800F03D0AD
:104B70003146204603F0C6FE761C7F08002F93D1F5
:104B8000206806F067FC10F0004F11D0D5F804083B
:104B900020F00101C5F8041894F8F404012861D04C
:104BA000204600F056FA2068416901F00041416159
:104BB000206806F04FFC10F4006F0CD0D5F8080800
:104BC00010F0010F02D0204600F088FA20684169F9
:104BD00001F400614161206806F03CFC10F4805F44
:104BE00065D0D5F8040820F00101C5F8041810219B
:104BF000206806F0C7FB0021606800281DD94FF629
:104C00007F3205EB4110C0F80829D0F8003923F4B1
:104C10000013C0F80039C0F8082BD0F8003B23F48B
:104C20000013C0F8003BD0F8003B43F00063C0F82D
:104C3000003B491C60688842E3D8D5F81C0840F066
:104C40000111C5F81C18206B98B1D5F8840840F004
:104C50000B01C5F88418D5F8440840F00B01C5F8DD
:104C6000441813E084F8F4A400212046FFF7DEFC8A
:104C700099E7D5F8140842F22B010143C5F814183E
:104C8000D5F8100840F00B01C5F81018D5F8000849
:104C900020F4FE61C5F80018217C04F2C4422068AB
:104CA00006F048F92068416901F4805141612068AB
:104CB00006F0D0FB10F4005F16D0206805F0E0FE8F
:104CC000206806F08BFBE06000F0BAFB2368014629
:104CD000227B184606F02EFC204600F0A3F920683F
:104CE000416901F400514161206806F0B3FB10F006
:104CF000080F07D0204600F0B0F92068416901F0A4
:104D000008014161206806F0A5FB10F0800F17D064
:104D1000A86920F08001A9610126606801280FD9E7
:104D200006EBC60004EB800090F87F02012803D157
:104D3000F1B22046FFF7BFFC761C6068B042EFD8A6
:104D4000206806F087FB10F4801F23D001266068DE
:104D500001281AD905EB4610D0F8001906EBC60059
:104D600004EB800090F84020012A0AD111F0004F96
:104D700007D080F83F90F0B240F080012046FFF766
:104D80009AFC761C6068B042E4D82068416901F45E
:104D900080114161206806F05DFB10F4001F2DD0EA
:104DA00001206168012924D905EB4011D1F8001BCD
:104DB00000EBC00204EB820292F88032012B14D186
:104DC00011F0004F11D094F8FC3401F4803103F05D
:104DD0000103994209D182F87F92A96941F08002CA
:104DE000AA61696911F0800F2AD0401C6168814274
:104DF000DAD82068416901F400114161206806F0A9
:104E000029FB10F0804F07D02046FFF739FC2068BF
:104E1000416901F080414161206806F01BFB10F000
:104E2000040F0BD02068456815F0040F02D020460F
:104E3000FFF73DFC2068416829434160BDE8F09FD1
:104E4000D5F8040840F40070C5F80408D1E7D0F89C
:104E5000080505F050BAD0F8080505F061BA2DE94B
:104E6000F0478AB00446002C05D0266894F8BD04AB
:104E7000002520B108E00AB00120BDE8F08784F8E1
:104E8000BC54204600F08CF8032084F8BD04F06B7D
:104E900010F4807F00D12561206805F0ADFF04F19A
:104EA0001000D4F82C8090E80F10A76A666A8DE88D
:104EB0000F10CDF81C8006970596616B206B099149
:104EC000089094E80F0005F0E9FD022728B184F866
:104ED000BD740AB00120BDE8F0870021206806F00B
:104EE000E1FA002160680126002813D901EBC10016
:104EF00004EB800080F83D6080F83C10A0F844107E
:104F000080F840508564C5644565481CC1B260683E
:104F10008842EBD800216068002814D901EBC10059
:104F200004EB800080F87D5280F87C1280F880527B
:104F3000C0F88852C0F88C52C0F89452481CC1B2D4
:104F400060688842EAD804F11000D4F82CA090E8F8
:104F50000F10D4F82890D4F824808DE80F10CDF8E5
:104F60001CA0CDF81890CDF81480616B206B0991CE
:104F7000089094E80F0005F083FE28B184F8BD7412
:104F80000AB00120BDE8F08784F8385084F8BD6489
:104F9000206805F067FE0AB00020BDE8F087000039
:104FA00000B587B00021029103910491059106910B
:104FB0000068B0F1A04F2BD11648016841F0010103
:104FC0000160006800F0010001904FF4C0500290B1
:104FD00002200390032005900A20069002A90E48A3
:104FE000FEF778FB0D48016841F0800101600C4834
:104FF000016841F480410160006800F48040019044
:10500000002205214320FFF7B9FA4320FFF7A8FA51
:1050100007B000BD30380240000002403438024082
:105020004438024070B504460125E06800280ED0DF
:10503000022801D0FCF7C6FE2946D4F8080505F081
:10504000E0F9D4F80805BDE8704005F093B90025F3
:10505000F2E7D0F8080505F0BDB9D0F8080505F06D
:10506000C3B910B5044694F8BC0401280BD0012044
:1050700084F8BC0484F83810206806F043FA002055
:1050800084F8BC0410BD022010BDD0F8082500F241
:10509000C441104605F0C1B910B50446206894F823
:1050A000BC14012906D0012184F8BC14A16A01298D
:1050B00002D008E0022010BDA169012903D0816B54
:1050C00041F480318163206806F02FF9206805F0F3
:1050D000BBFD002084F8BC0410BD000010B50446E0
:1050E000D4F8080505F0DDF92068D0F8001E41F07D
:1050F0000101C0F8001E206A002804D0024801689F
:1051000041F00601016010BD10ED00E02DE9F8430B
:1051100004464FF0010820784FF0000710F0050F0B
:1051200033D0DFF84491C9F86870FEF7F1FB06460A
:105130004E4D286810F0006F0BD0FEF7E9FB801B86
:10514000022802D90320BDE8F883286810F0006F18
:10515000F3D16068217A800140EA01704449086017
:10516000C9F86880FEF7D4FB0646286810F0006F87
:105170000BD1FEF7CDFB801B022802D90320BDE82E
:10518000F883286810F0006FF3D0207810F0020F39
:105190005CD03848016841F080510160006800F03F
:1051A00080500090344D286840F480702860FEF7ED
:1051B000AFFB0646286810F4807F0BD1FEF7A8FBF2
:1051C000801B022802D90320BDE8F883286810F468
:1051D000807FF3D0294D286800F4407028B3A1895E
:1051E00001F44071814220D0286820F440702449A5
:1051F000C1F800800F602860286810F0010F14D0FB
:10520000FEF786FB0646286810F0020F0DD141F22A
:105210008837FEF77DFB801BB84202D90320BDE82A
:10522000F883286810F0020FF3D0E0684FF4407163
:1052300031EA000213490CD0086820F4F810086025
:105240002868A189C1F30B01084328600020BDE84C
:10525000F8830A6820F4407022F4F81220F07040BD
:1052600010430860ECE700000000474200380240AD
:1052700084380240403802400070004070380240DC
:10528000400E4742083802402DE9F04704460D46DB
:10529000002C13D0DFF85491D9F80000EFB200F0E1
:1052A0000700A8420DD289F80070D9F8000000F07C
:1052B0000700A84205D00120BDE8F0870120BDE825
:1052C000F08720684A4E10F0020F14D010F0040F3F
:1052D00003D0306840F4E0503060207810F0080FC0
:1052E00003D0306840F4604030603068A16820F03E
:1052F000F00008433060207810F0010F3ED0606865
:105300003C49012808D002280DD003280BD0096899
:1053100011F0020F28D00AE0096811F4003F06D10D
:105320000120BDE8F087096811F0007F19D03168CD
:1053300021F0030108433060FEF7EAFA8046306846
:10534000616800F00C00B0EB810F17D041F2883A91
:10535000FEF7DEFAA0EB0800504508D90320BDE8AF
:10536000F0870120BDE8F0870120BDE8F0873068B4
:10537000616800F00C00B0EB810FE9D1D9F80000B2
:1053800000F00700A8420AD989F80070D9F8000097
:1053900000F00700A84202D00120BDE8F087207885
:1053A00010F0040F05D03068E16820F4E0500843A5
:1053B0003060207810F0080F06D03068216920F4A2
:1053C000604040EAC100306000F060F831680A4A8D
:1053D000C1F30311515CC8400849086008480068DF
:1053E000FFF74EF80020BDE8F0870000003C0240C7
:1053F0000838024000380240EC9C010858050020A3
:10540000500500200F2202600B4A136803F00303CB
:105410004360136803F0F0038360136803F4E05300
:10542000C360126802F46042D20802610348006857
:1054300000F007000860704708380240003C024056
:1054400001480068704700005805002000B5FFF7CC
:10545000F7FF04490968044AC1F38221515CC8403E
:1054600000BD000008380240FC9C010800B5FFF7B1
:10547000E7FF04490968044AC1F34231515CC8405E
:1054800000BD000008380240FC9C010810B5174818
:10549000006810F00C01164816D0164B042912D0E3
:1054A000082911D1144C216801F03F02216811F440
:1054B000800F0AD02068C0F38810A0FB03010023EE
:1054C000FAF7CAFF09E0184610BD21680023C1F3AE
:1054D0008811A1FB0001FAF7BFFF2168C1F3014168
:1054E000491C4900B0FBF1F010BD00000838024033
:1054F0000024F400001BB700043802402DE9F84FE7
:105500000446002C12D02078FB4E10F0010FA6F1BB
:10551000040563D0301D016801F00C0104290CD092
:10552000006800F00C00082803D010E00120BDE85E
:10553000F88F306810F4800F09D0286810F4003F0D
:105540004CD06068002849D10120BDE8F88F606820
:10555000B0F5803F14D0B0F5A02F16D0286820F405
:1055600080302860286820F480202860606810B3AC
:10557000FEF7CEF90746286810F4003F0ED02DE064
:10558000286840F480302860F0E7286840F48020E4
:105590002860286840F480302860E7E7FEF7B8F913
:1055A000C01B642802D90320BDE8F88F286810F4D6
:1055B000003FF3D012E0FEF7ABF90746286810F47D
:1055C000003F0BD0FEF7A4F9C01B642802D90320CA
:1055D000BDE8F88F286810F4003FF3D12078C74F5A
:1055E00010F0020F4FF0000957D0C548016811F0C4
:1055F0000C0F14D0006800F00C00082803D13068AC
:1056000010F4800F0BD0E06880B301203860FEF703
:105610007FF98046286810F0020F12D01EE028683B
:1056200010F0020F05D0E068012802D00120BDE88B
:10563000F88F2868216920F0F80040EAC10028604E
:105640002BE0FEF765F9A0EB0800022802D9032041
:10565000BDE8F88F286810F0020FF2D028682169A1
:1056600020F0F80040EAC100286016E0FFE7C7F824
:105670000090FEF74DF98046286810F0020F0CD01C
:10568000FEF746F9A0EB0800022802D90320BDE886
:10569000F88F286810F0020FF2D1207810F0080F70
:1056A00035D09848DFF860A26169C1B1012101607D
:1056B000FEF72EF98046DAF8000010F0020F26D12E
:1056C000FEF726F9A0EB0800022802D90320BDE866
:1056D000F88FDAF8000010F0020FF1D017E0C0F8F0
:1056E0000090FEF715F98046DAF8000010F0020F7E
:1056F0000DD0FEF70DF9A0EB0800022802D9032017
:10570000BDE8F88FDAF8000010F0020FF1D1207830
:1057100010F0040F71D04FF000087C48006810F0C2
:10572000805F0AD17948016841F0805101600068CA
:1057300000F0805000904FF00108DFF8D4B1DBF8A2
:10574000000010F4807F1BD1DBF8000040F4807073
:10575000CBF80000FEF7DCF88246DBF8000010F41E
:10576000807F0DD1FEF7D4F8A0EB0A00022802D901
:105770000320BDE8F88FDBF8000010F4807FF1D043
:10578000A068DFF890B1012818D005281DD0DBF8FB
:10579000000020F00100CBF80000DBF8000020F052
:1057A0000400CBF80000A06840B3FEF7B1F88246D1
:1057B000DBF8000010F0020F14D03EE0DBF8000030
:1057C00040F00100CBF80000EDE7DBF8000040F00E
:1057D0000400CBF80000DBF8000040F00100CBF83B
:1057E0000000E0E7FEF794F8A0EB0A0141F28830F0
:1057F000814204D90320BDE8F88F26E005E0DBF8FC
:10580000000010F0020FEDD017E0FEF781F882469D
:10581000DBF8000010F0020F0FD0FEF779F8A0EBD4
:105820000A0141F28830814202D90320BDE8F88F95
:10583000DBF8000010F0020FEFD1B8F1010F04D136
:105840003248016821F080510160A069F0B32C4911
:1058500009684FF0FF3801F00C01082966D00228D2
:1058600010D0C7F86090FEF753F80446286810F08F
:10587000007F2BD0FEF74CF8001B022851D90320E3
:10588000BDE8F88FC7F86090FEF742F881462868B7
:1058900010F0007F0CD0FEF73BF8A0EB09000228C7
:1058A00002D90320BDE8F88F286810F0007FF2D1FC
:1058B000216AE069A26A0843616A08EB5202890121
:1058C00041EA0241084394F82C1000E055E040EA18
:1058D0000160306001203866FEF71AF80446286837
:1058E00010F0007F49D1FEF713F8001B022813D9EE
:1058F0000320BDE8F88F0000043802400000474252
:1059000008380240800E4742743802404038024056
:105910000070004070380240286810F0007FE2D02C
:105920002BE0286810F0007FA4D126E0012822D0C7
:105930003068E26900F4800191421AD1226A00F0D5
:105940003F01914215D147F6C071626A0140B1EB47
:10595000821F0ED1A26A00F4403108EB5202B1EB73
:10596000024F06D194F82C1000F07060B0EB016F7C
:1059700003D00120BDE70120BBE70020B9E710B547
:105980000446002C02D0607F10B106E0012010BD5B
:1059900000202077204600F03DF802206077216843
:1059A000CA204862216853204862204603F07EF8EE
:1059B0000146E1B92068816821F0400121F4E0014D
:1059C00081602068816862686369114322691A43B3
:1059D000114381602168E0680861206801692289BB
:1059E00041EA02410161204603F084F8014659B9B9
:1059F0002068026C22F4802202642068026CA36991
:105A00001A430264012060772268FF205062084632
:105A100010BD00001FB504460020009001900290C8
:105A200003900949206888420CD1022000900002AE
:105A300003906846FFF76AFB08B1FCF7C3F9012041
:105A4000024908601FBD0000002800403C0E47428C
:105A500070B504462068C16821F0A001C160FDF75F
:105A600057FF05462068C06810F0200F0CD1FDF7E5
:105A70004FFF401BB0F57A7F01D9032070BD20682D
:105A8000C06810F0200FF2D0002070BD70B5044641
:105A9000002C09D0606A002540B125616561A562CE
:105AA00094F8510040B10CE0012070BD6068B0F581
:105AB000827FF4D0E561F2E784F85050204600F090
:105AC00045F8022084F851002068016821F0400167
:105AD0000160A088218900F4827001F40441084328
